:020000040800F2
:10000000B0080020FD110008390200083B0200087A
:100010003F020008430200084702000800000000F9
:100020000000000000000000000000004B0200087B
:100030004D020008000000004F02000851020008B5
:1000400017120008171200081712000817120008EC
:1000500017120008171200081712000817120008DC
:1000600017120008171200081712000817120008CC
:1000700017120008171200081712000817120008BC
:1000800017120008171200081712000817120008AC
:10009000171200081712000817120008171200089C
:1000A000171200081712000817120008171200088C
:1000B000171200081712000817120008171200087C
:1000C000171200081712000817120008171200086C
:1000D000171200081712000817120008171200085C
:1000E000171200081712000817120008DFF80CD0CA
:1000F00002F0A4F90048004701010008B008002000
:1001000086B03E4B0FCBCDE90423CDE9020100249C
:10011000482000F0CFFF00F08DF900F035FF3220CD
:1001200000F0E2FF00F0CFFB012010230022114677
:100130000090104600F0D8FD012010230246002157
:100140000090184600F0D0FD012010233A22002133
:100150000090282000F0B4FC15E00120102328A214
:1001600000210090084600F043FDC82000F0BCFFCD
:100170000120102326A2002100903C2000F038FD31
:10018000C82000F0B1FF00F037FA0028E5D14FF4A5
:100190007A7000F0A9FF00F0E3FF2EE000F047FACC
:1001A0000446204601F0DEFE80461C4901F02AFE8E
:1001B000054601F0FFFE064632460B4618A002F047
:1001C00071F9204601F0CEFE8046144901F01AFE76
:1001D000054601F0EFFE064632460B4613A102A883
:1001E00002F070F90120102302AA002100903C20A7
:1001F00000F0FEFC642000F077FFCFE7C82D000878
:1002000044533138423230204572726F7200000020
:10021000202020202020202000000000000020417D
:10022000543A25342E3166200D0A000025342E3133
:100230006620202020000000704700BFFEE700BFBE
:10024000FEE700BFFEE700BFFEE77047704770475C
:10025000704700000CB50020019000906C480068C9
:1002600040F480306A49086000BF6948006800F4C3
:10027000003000900198401C0190009818B9019836
:10028000B0F5A06FF1D16248006800F4003010B101
:100290000120009001E0002000900098012843D147
:1002A0005C48006840F010005A4908600846006841
:1002B00020F0030008600846006840F00200086073
:1002C00053484068524948600846406848600846BC
:1002D000406840F4806048600846406820F47C1024
:1002E00048600846406840F4E810486008460068E6
:1002F00040F08070086000BF4548006800F0007062
:100300000028F9D04248406820F003004049486086
:100310000846406840F00200486000BF3C48406822
:1003200000F00C000828F9D10CBD10B5FFF792FFC2
:1003300010BD10B53648006840F00100344908602F
:10034000084640683449084031494860084600681A
:10035000324908402E4908600846006820F4802091
:1003600008600846406820F4FE0048604FF41F0013
:100370008860FFF7DAFF4FF000602949086010BD80
:1003800010B5002100200022214B5B6803F00C0116
:1003900021B1042906D0082928D107E0214B224C9D
:1003A000236027E01F4B204C236023E0184B5B6841
:1003B00003F47010164B5B6803F48032022303EBE6
:1003C000904022B9194B4343174C23600DE0104B6A
:1003D0005B6803F4003323B1144B4343124C236096
:1003E00003E0104B4343104C236003E00D4B0E4CD5
:1003F000236000BF00BF064B5B68C3F303130C4CC4
:10040000E15C094B1B68CB40074C236010BD00002A
:1004100000100240002002400000FFF8FFFFF6FE3F
:1004200008ED00E000127A000000002000093D0005
:100430000400002008B50121102001F07BFA4FF4E0
:100440000050ADF8000010208DF8030003208DF857
:1004500002006946044800F0B1FF4FF40051024821
:1004600001F059F808BD00000010014038B50446FD
:100470000121042001F05EFA4CB14020ADF80000EB
:1004800003208DF8020010208DF8030005E04020C5
:10049000ADF8000004208DF803006946864800F09E
:1004A0008DFF38BD10B50120FFF7E0FF40218248E5
:1004B00001F033F840F2EE2000F032FE40217E4899
:1004C00001F029F80F2000F02BFE10BD10B500241C
:1004D0000020FFF7CBFF04E0601CC4B2012000F055
:1004E0001FFE4021744800F0FCFF08B1C82CF3DB6C
:1004F000C82C01DB012010BD002404E0601CC4B244
:10050000012000F00DFE40216B4800F0EAFF08B921
:10051000F02CF3DBF02C01DB0120ECE70020EAE714
:1005200010B50120FFF7A2FF4021634800F0F5FF5E
:10053000022000F0F5FD40215F4800F0ECFF0020B4
:10054000FFF794FF0C2000F0EBFD40215A4800F02B
:10055000C8FF08B1012400E00024322000F0E0FDD3
:10056000204610BD70B50026012508E0FFF7D8FF32
:100570000446E00140EA6600C6B2681CC5B2082D18
:10058000F4DD304670BD70B504460120FFF76EFF04
:10059000012522E004F00106641076B140214648AE
:1005A00000F0BBFF022000F0BBFD4021424800F0FC
:1005B000B2FF3C2000F0B4FD0DE040213E4800F0C9
:1005C000ACFF3C2000F0ACFD40213B4800F0A3FF15
:1005D000022000F0A5FD681CC5B2082DDADD70BD53
:1005E00010B5FFF75FFFFFF771FFCC20FFF7CBFFE0
:1005F0004420FFF7C8FF10BD08B50121042001F019
:1006000099F94020ADF8000010208DF80300032078
:100610008DF802006946284800F0D0FE40212648A7
:1006200000F079FFFFF73EFFFFF750FF08BD2DE90F
:10063000F84FFFF7D5FFFFF735FFFFF747FFCC2057
:10064000FFF7A1FFBE20FFF79EFFFFF78BFF83465A
:10065000FFF788FF0446072C08DDE043C4B26FEAC9
:100660000B0000F0FF0B4FF0000A01E04FF0010A11
:10067000A1464FEA09200FFA80F909EB0B000FFAA7
:1006800080F9484601F06EFC009001F093FC0746AB
:1006900000220A4B01F0F4FB054601F06CFC0FFA56
:1006A00080F9BAF1000F02D04846BDE8F88FC9F1D1
:1006B000000000B2F9E70000000801400000E43F3C
:1006C000032000BF011EA0F10102D0B2FAD1704791
:1006D00010B54FF48061F84800F01FFF4FF400613F
:1006E000F54800F018FFFFF7EBFF4FF48061F24888
:1006F00000F011FF10BD10B54FF48061EE4800F01E
:100700000AFFFFF7DDFF4FF40061EB4800F003FF45
:10071000FFF7D6FF4FF40061E74800F0FEFEFFF759
:10072000CFFF10BD70B5044600251FE004F0800027
:1007300028B14FF48061E04800F0EDFE04E04FF492
:100740008061DD4800F0E9FEFFF7BAFF4FF4006179
:10075000D94800F0E0FEFFF7B3FF4FF40061D64840
:1007600000F0DBFE6006040E681CC5B2082DDDDB60
:1007700070BD10B54FF48061CF4800F0CCFE4FF44F
:100780000061CD4800F0C7FEFFF79AFF4FF480618B
:10079000C94800F0C2FEFFF793FF4FF40061C6485E
:1007A00000F0BBFEFFF78CFF10BD70B505460C4690
:1007B000FFF7DFFF7820FFF7B5FFFFF79CFF1CB1C5
:1007C0004020FFF7AFFF02E00020FFF7ABFFFFF78D
:1007D00092FF2846FFF7A6FFFFF78DFFFFF778FF90
:1007E00070BD10B504461CB90021A620FFF7DDFF3F
:1007F000012C03D10021A720FFF7D7FF10BD10B5B2
:1008000004463CB90021C820FFF7CFFF0021A120FA
:10081000FFF7CBFF012C07D10021C020FFF7C5FF58
:100820000021A020FFF7C1FF10BD10B500218D20D1
:10083000FFF7BBFF00211420FFF7B7FF0021AF2017
:10084000FFF7B3FF10BD10B500218D20FFF7ADFFFE
:1008500000211020FFF7A9FF0021AE20FFF7A5FF20
:1008600010BD70B500242BE004F1B001C8B2002126
:10087000FFF79BFF00210846FFF797FF002110209C
:10088000FFF793FFFFF775FF7820FFF74BFFFFF7A8
:1008900032FF4020FFF746FFFFF72DFF002509E05C
:1008A000864901EBC501085DFFF73CFFFFF723FF19
:1008B000681CC5B2802DF3DBFFF70AFF601CC4B2D1
:1008C000082CD1DB70BD70B500240CE0002506E0DB
:1008D00000207A4901EBC5010855681CC5B2802D7E
:1008E000F6DB601CC4B2082CF0DBFFF7BAFF70BD6A
:1008F000F0B514460B46CF1701EB5777C7F3C70285
:10090000CF1701EB5777FF10A1EBC707FEB201230A
:10091000B340DDB24CB1694B03EBC0039B5C2B438E
:10092000664F07EBC007BB541AE0644B03EBC003F0
:100930009B5CDB43614F07EBC007BB545F4B03EB92
:10094000C0039B5C2B435D4F07EBC007BB545B4B65
:1009500003EBC0039B5CDB43584F07EBC007BB5462
:10096000F0BD2DE9FF4F84B081468A4600200290F9
:1009700083460698A0EB09040798A0EB0A06CDF879
:100980000490CDF800A0002C01DD012705E00CB992
:10099000002702E04FF0FF376442002E02DD4FF0E7
:1009A000010806E016B94FF0000802E04FF0FF38EA
:1009B0006642B44201DD254600E035460020039042
:1009C0001EE0009AD1B2019AD0B2119AFFF790FFBF
:1009D000029820440290B3440298A84205DD029890
:1009E000401B0290019838440190AB4504DDABEB0D
:1009F000050B0098404400900398401C80B203907F
:100A0000691C03988842DCDB08B0BDE8F08F2DE953
:100A1000F04306460F4690460025444643E03A1B05
:100A2000D1B27219D0B20122FFF762FF3A1BD1B2E4
:100A3000721BD0B20122FFF75BFF3A19D1B2721BD1
:100A4000D0B20122FFF754FF3A19D1B27219D0B2D5
:100A50000122FFF74DFF7A19D1B23219D0B201222B
:100A6000FFF746FF7A1BD1B23219D0B20122FFF74D
:100A70003FFF7A1BD1B2321BD0B20122FFF738FF01
:100A80007A19D1B2321BD0B20122FFF731FF6D1CAF
:100A900005FB05F004FB040008FB1809B9F1000F81
:100AA00001DD641E6D1E6000604308FB08F1884292
:100AB000B5DABDE8F0830000000C014030000020F2
:100AC0002DE9FE4F0746884692461C460197CDF811
:100AD0000080082C02D14FF006091FE02046E317E2
:100AE00004EB5373DB1021464FEAE47C04EB5C7C9F
:100AF0004FEAEC0CA4EBCC0CBCF1000F02D04FF091
:100B0000010C01E04FF0000C6344224604EBD27C60
:100B10004FEA6C0C03FB0CF303F0FF09AAF1200071
:100B2000C6B200255EE0082C07D106EB4600FE4960
:100B300001EB400010F805B01DE00C2C07D106EBCE
:100B40004600FA4901EB800010F805B013E0102CC4
:100B500005D1F74800EB061010F805B00BE0182C93
:100B600007D106EBC600F34901EB800010F805B091
:100B700001E0BDE8FE8F002002901CE00BF00100B8
:100B800028B1414638460C9AFFF7B2FE09E00C98AE
:100B900008B9012000E00020024641463846FFF730
:100BA000A7FE4FEA6B0B08F1010000F0FF08029866
:100BB000401CC0B2029002980828DFDB781CC7B244
:100BC000082C0BD004EBD4714A100199791A8A428F
:100BD00004D1019F00980830C0B20090DDF8008079
:100BE000681CC5B24D459EDBFFF73BFE00BFC0E76A
:100BF0002DE9F84306460F4614461D46DDF82080D1
:100C000013E0CDF8008022782B4639463046FFF7B6
:100C100057FF082D02D1B01DC6B205E0284605EBEE
:100C2000D07106EB6101CEB2641C2078202802DB73
:100C300020787E28E5DDFFF714FEBDE8F88310B5C7
:100C40000246012000E050430B1EA1F10104E1B275
:100C5000F9D110BD2DE9FF4F83B0064691461F46DE
:100C6000DDE9104A4FF0000B082C01D14FF0020BC8
:100C7000002532E0781B401EC1B20A20FFF7DFFFDB
:100C8000B9FBF0F00A21B0FBF1F201FB1208B8F158
:100C9000000F0FD104EBD4710BEB610101FB056177
:100CA000C8B223463022CDF800A002940499FFF781
:100CB00007FF10E004EBD4710BEB610101FB056150
:100CC000C8B208F13001CAB22346CDF800A00294A0
:100CD0000499FFF7F5FE681CC5B2BD42CADBFFF7F9
:100CE000C0FD07B0BDE8F08F2DE9FC5F07468846E0
:100CF00016461C46BB46CDF804802046E21704EB9E
:100D00005272D2102146E31704EB5373DB10A4EBAD
:100D1000C3030BB1012300E000231A44624392B2E3
:100D20000092002555E0102C05D1834800EB4610B9
:100D300010F805A01BE0182C07D106EBC6007F4970
:100D400001EBC00010F805A011E0202C05D17C4873
:100D500000EBC61010F805A009E0402C05D1794839
:100D600000EB462010F805A001E0BDE8FC9F4FF025
:100D700000091CE00AF0010028B1414638460C9AEF
:100D8000FFF7B6FD09E00C9808B9012000E000204B
:100D9000024641463846FFF7ABFD4FEA6A0A08F1C2
:100DA000010000F0FF0809F1010000F0FF09B9F1AE
:100DB000080FDFDB781CC7B2A7EB0B00A04204D101
:100DC0005F4601980830C0B20190DDF80480681CCD
:100DD00085B200988542A6DBFFF743FD00BFC4E75C
:100DE00008B5804689469246002600274BE04FB959
:100DF0001023324618218020CDF800A0FFF774FFA1
:100E0000701CC6B2464522D14FF0000B1AE00124F7
:100E100010E000250AE04C4800EBC400415D601E74
:100E2000494A02EBC0004155681CC5B2082DF2DBEF
:100E3000601CC4B2902CECDBFFF713FD0BF101003A
:100E400000F0FF0B4FEA09105845E0DC0026781C43
:100E5000C7B2102F00D10027012410E000250AE0BE
:100E6000394800EBC400415D601E374A02EBC00008
:100E70004155681CC5B2082DF2DB601CC4B2902C31
:100E8000ECDBFFF7EEFCB2E72DE9FF5F05460E460F
:100E900017461C46DDF83C904FF0000A0095B3461B
:100EA0002046E21704EB5272D2102146E31704EBFE
:100EB0005373DB10A4EBC3030BB1012300E0002349
:100EC0001A44D4B24FF0000858E0002003904EE0DE
:100ED0000E9810F80A0002900AF101001FFA80FA39
:100EE000002001901DE0029800F0010028B14A4660
:100EF00031462846FFF7FCFC0AE0B9F1000F01D1AA
:100F0000012000E00020024631462846FFF7F0FCB1
:100F1000029840100290701CC6B20198401CC0B2EA
:100F200001900198082811E0D82D00080030000831
:100F300074340008643A0008C047000800480008FC
:100F400048480008C848000830000020CBDB681C77
:100F5000C5B20098281AB84204D1009D0BF10800D0
:100F600000F0FF0B5E460398401CC0B2039003984C
:100F7000B842ADDB08F1010000F0FF08A045A4DB9A
:100F8000FFF76FFCBDE8FF9F08B50121082000F0C6
:100F9000D1FC4FF40060ADF8000014208DF8030080
:100FA00003208DF802006946414800F007FA4FF42B
:100FB00000613F4800F0AFFA4FF48060ADF80000E8
:100FC00069463B4800F0FAF94FF48061384800F078
:100FD000A2FAC82000F088F80021AE20FFF7E5FB58
:100FE00000210846FFF7E1FB00211020FFF7DDFBA1
:100FF00000214020FFF7D9FB00218120FFF7D5FB1E
:101000000021CF20FFF7D1FB0021A120FFF7CDFB6E
:101010000021C820FFF7C9FB0021A620FFF7C5FB70
:101020000021A820FFF7C1FB00213F20FFF7BDFBF7
:101030000021D320FFF7B9FB00210846FFF7B5FBDD
:101040000021D520FFF7B1FB00218020FFF7ADFB89
:101050000021D920FFF7A9FB0021F120FFF7A5FB14
:101060000021DA20FFF7A1FB00211220FFF79DFBF2
:101070000021DB20FFF799FB00213020FFF795FBD3
:1010800000212020FFF791FB00210220FFF78DFBBC
:1010900000218D20FFF789FB00211420FFF785FB3D
:1010A000FFF711FC0021AF20FFF77FFB08BD000018
:1010B000000C014010B504466FF0040000F0FFF88A
:1010C000E11704EB5171C1F3C701234A11701046B7
:1010D000007800EB4001C1EBC0104FF6FF7101EA50
:1010E000C0001E49088010BD01461C4A12884A43B0
:1010F0004FF0E0235A6100229A6101221A6100BF79
:101100004FF0E022106900F001021AB100F48032C1
:10111000002AF5D000224FF0E0231A619A6170474F
:1011200001460D4A12784A434FF0E0235A610022EB
:101130009A6101221A6100BF4FF0E022106900F0AD
:1011400001021AB100F48032002AF5D000224FF0DB
:10115000E0231A619A6170471400002016000020F5
:1011600000B585B0012144F2040000F0E3FB4FF428
:101170000070ADF8100018208DF8130003208DF8D2
:10118000120004A91B4800F019F94FF48060ADF873
:10119000100004208DF8130004A9164800F00EF981
:1011A0004FF4E13000900020ADF80400ADF80600E7
:1011B000ADF80800ADF80C000C20ADF80A00694647
:1011C0000D4800F05EFC01210B4800F0E6FC05B084
:1011D00000BD70B504460D46E1B2074800F04AFD77
:1011E00000BF0548008800F080000028F9D02046A4
:1011F00070BD0000000801400038014006488047EB
:1012000006480047FEE7FEE7FEE7FEE7FEE7FEE7EB
:10121000FEE7FEE7FEE7FEE733030008ED00000807
:1012200031490143314A1160704770B500210023F4
:101230000F22C47804B32D4C246804F4E064C4F590
:10124000E064210AC1F10403CA40447804FA03F1BE
:101250008478144021430901254C0678A15504786F
:1012600004F01F050124AC4005786D11AD0005F1B7
:10127000E025C5F8004109E0047804F01F050124C9
:10128000AC401C4D0678761145F8264070BD1A4AD0
:101290000A400243154B1B1F1A60704739B1134AAD
:1012A000121D12680243114B1B1D1A6006E00F4A03
:1012B000121D126882430D4B1B1D1A6070470428D3
:1012C00008D14FF0E021096941F004014FF0E0221C
:1012D000116107E04FF0E021096921F004014FF0AE
:1012E000E0221161704700000000FA050CED00E0FB
:1012F00000E400E080E100E080FFFF1F10B504463D
:10130000CC48844208D10121042000F02DFB0021AB
:10131000042000F029FB46E0C748844208D101219F
:10132000082000F021FB0021082000F01DFB3AE01E
:10133000C248844208D10121102000F015FB002191
:10134000102000F011FB2EE0BD48844208D101219D
:10135000202000F009FB0021202000F005FB22E006
:10136000B848844208D10121402000F0FDFA002154
:10137000402000F0F9FA16E0B348844208D1012178
:10138000802000F0F1FA0021802000F0EDFA0AE060
:10139000AE48844207D10121801500F0E5FA002112
:1013A000A01500F0E1FA10BD10B50121084600F0CB
:1013B000DBFA0021012000F0D7FA10BD2DE9F04141
:1013C000024600250026002000230024002791F873
:1013D00003C00CF00F0591F803C00CF0100CBCF129
:1013E000000F03D091F802C04CEA050591F800C047
:1013F000BCF1000F31D0146800202BE04FF0010C3D
:101400000CFA00F3B1F800C00CEA03069E4220D1AA
:1014100083004FF00F0C0CFA03F7BC4305FA03FCF2
:101420004CEA040491F803C0BCF1280F06D14FF038
:10143000010C0CFA00FCC2F814C00AE091F803C0D9
:10144000BCF1480F05D14FF0010C0CFA00FCC2F8BA
:1014500010C0401C0828D1D31460B1F800C0BCF102
:10146000FF0F34DD546800202EE000F1080C4FF02F
:10147000010808FA0CF3B1F800C00CEA03069E421A
:1014800021D183004FF00F0C0CFA03F7BC4305FA8F
:1014900003FC4CEA040491F803C0BCF1280F05D109
:1014A00000F1080C08FA0CF8C2F8148091F803C097
:1014B000BCF1480F07D100F1080C4FF0010808FA01
:1014C0000CF8C2F81080401C0828CED35460BDE848
:1014D000F0814FF6FF710180022181700421C170FB
:1014E00070470246002093680B400BB1012000E0DA
:1014F000002070470146886880B27047024600208D
:10150000D3680B400BB1012000E00020704701467A
:10151000C86880B2704701617047416170470AB185
:10152000016100E041617047C16070474FF4803253
:101530000A438261816182618269826970470246E1
:101540000020434B18684FF68073184040EA0210A1
:1015500008433F4B186070473E49C8617047F0B57B
:101560000A46002300240021002500F00046B6F1C1
:10157000004F02D1364EF16901E0354E7168C0F37B
:10158000034583B200F44016B6F5401F08D121F0A0
:1015900070612F4E766826F070662D4F7E6012E0E7
:1015A00000F48016B6F5801F06D1032606FA05F46E
:1015B000A14341F0706106E0460D360103FA06F6DC
:1015C000B14341F0706122B1460D360103FA06F6CF
:1015D000314300F00046B6F1004F02D11C4EF161DC
:1015E00001E01B4E7160F0BD30B500228B071C0F6F
:1015F0000F2303FA04F2164B08338C1053F82430EF
:101600009343134C08348D1044F8253023468C1036
:1016100053F824308C07240F00FA04F423430C4CB5
:1016200008348D1044F8253030BD0A49DC3108609B
:101630007047000000080140000C0140001001400C
:101640000014014000180140001C0140002001402E
:101650000000014000002042DF48006840F0010027
:10166000DD49086008464068DC490840DA494860BE
:1016700008460068DA490840D7490860084600680B
:1016800020F4802008600846406820F4FE0048608E
:101690004FF41F0088607047CF49096821F48031FA
:1016A000CD4A11601146096821F480211160B0F51E
:1016B000803F03D0B0F5802F0ED106E0C6490968FF
:1016C00041F48031C44A116007E0C349096841F41C
:1016D000A021C14A116000E000BF00BF704710B5F3
:1016E00001460022002300204A11012A02D1BA4CEF
:1016F000236806E0022A02D1B74C236A01E0B64C07
:10170000636A01F01F02012494401C400CB10120C7
:1017100000E0002010BD38B5002000900024002516
:1017200000BF3120FFF7DBFF05460098401C00900A
:101730000098B0F5A06F01D0002DF2D03120FFF756
:10174000CEFF08B1012400E00024204638BD014648
:101750000020A14A106820F0F80040EAC1001060A3
:101760007047A04908607047024600209A4B5868AD
:1017700020F47C1042EA01031843974B58607047ED
:1017800098490866704701460020934A506820F047
:1017900003000843506070478F48406800F00C0019
:1017A0007047014600208C4A506820F0F000084342
:1017B0005060704701460020874A506820F4E0607E
:1017C00008435060704701460020834A506820F467
:1017D000605040EAC1005060704729B17E4A527A99
:1017E00002437D4B5A7204E07B4A527A82437A4B21
:1017F0005A7270477B49D831086070470146002013
:10180000754A506820F440400843506070470021FA
:10181000714A20321170704A82F82010012802D0DB
:1018200004280AD104E001216B4A2032117005E03E
:101830000521694A2032117000E000BF00BF7047E7
:101840006949086070476449096A0143624A116244
:101850007047654944390860704730B5002100225F
:10186000002400235C4D6D6805F00C0121B10429B2
:1018700005D0082923D105E05C4D056022E05B4DD1
:1018800005601FE0544D6D6805F47012524D6D688F
:1018900005F48034022505EB92421CB9544D5543A2
:1018A00005600BE04C4D6D6805F400351DB1504DE1
:1018B0005543056002E04D4D5543056002E04B4D38
:1018C000056000BF00BF444D6D6805F0F0010909D7
:1018D000484D6B5C0568DD4045603F4D6D6805F423
:1018E000E061090A434D6B5C4568DD4085603A4D17
:1018F0006D6805F46051C90A3E4D6B5C4568DD407A
:10190000C560354D6D6805F44041890B3A4D6B5CFF
:10191000C568B5FBF3F5056130BD29B12E4A5269A2
:1019200002432D4B5A6104E02B4A526982432A4BF1
:101930005A61704729B1284A92690243264B9A613D
:1019400004E0254A92698243234B9A61704729B18A
:10195000214AD2690243204BDA6104E01E4AD2696F
:1019600082431D4BDA61704729B11B4AD26802439A
:10197000194BDA6004E0184AD2688243164BDA60E9
:10198000704729B1144A12690243134B1A6104E0EB
:10199000114A12698243104B1A617047124940394B
:1019A000086070470F49C86470470B49C871704799
:1019B0000948406A40F08070074948627047014614
:1019C0000020054A92680A400AB1012000E0002088
:1019D0007047014988727047001002400000FFF80C
:1019E000FFFFF6FE000042428004424200127A00ED
:1019F00000093D00180000202800002010B5044612
:101A0000FB48844209D101218803FFF7ADFF002183
:101A10004FF48040FFF7A8FF32E0F648844209D136
:101A200001214804FFF7ADFF00214FF40030FFF71C
:101A3000A8FF25E0F048844209D101218804FFF77E
:101A4000A0FF00214FF48020FFF79BFF18E0EB4838
:101A5000844209D10121C804FFF793FF00214FF40C
:101A60000020FFF78EFF0BE0E548844208D10121FA
:101A70000805FFF786FF00214FF48010FFF781FF74
:101A800010BD2DE9F04786B005460E460024A2465B
:101A900000BFA1460027B08900B100BF2F462C8AA5
:101AA0004CF6FF700440F08804432C82AC894EF65B
:101AB000F3100440B0883189084371890843044316
:101AC000AC81AC8A4FF6FF400440B0890443AC823D
:101AD00001A8FFF7C2FEC648874202D1DDF810A078
:101AE00001E0DDF80CA0A88900F4004040B10AEB49
:101AF000CA0000EB0A1031684900B0FBF1F807E0BA
:101B00000AEBCA0000EB0A1031688900B0FBF1F85B
:101B10006420B8FBF0F004012009642101FB108966
:101B2000A88900F4004040B1322000EBC900B0FBAE
:101B3000F1F000F00700044308E0322000EB091048
:101B40006421B0FBF1F000F00F0004432C8106B0DB
:101B5000BDE8F0874FF41651016000218180C180FB
:101B600001810C21418100218181704710B502461D
:101B70000020108A4FF2FF0318400B884C88234343
:101B80008C882343CC8823431843108210BD002146
:101B9000018041808180C180704721B1828942F4F7
:101BA0000052828104E082894DF6FF731A408281DF
:101BB0007047F0B50346002400260025002040F6BB
:101BC0006A17B94200D100BF1846C1F3421401F0B0
:101BD0001F06012707FA06F5012C01D10C3004E09D
:101BE000022C01D1103000E014301AB107682F43E5
:101BF000076002E00768AF430760F0BD1AB1838A4F
:101C00000B43838202E0838A8B4383827047028A7C
:101C10004FF6F0731A400282028A0A43028270472A
:101C200082894FF2FF731A40828182890A4382813E
:101C3000704721B1828942F00202828104E08289E8
:101C40004FF6FD731A4082817047028A4FF6DF73A8
:101C50001A400282028A0A430282704721B1028A34
:101C600042F48042028204E0028A4BF6FF731A407B
:101C700002827047C1F3080282807047014688885B
:101C8000C0F308007047818941F0010181817047EC
:101C9000028BD2B20283028B42EA01220283704796
:101CA000028B02F47F420283028B0A430283704755
:101CB00021B1828A42F02002828204E0828A4FF6B9
:101CC000DF731A408282704721B1828A42F010028B
:101CD000828204E0828A4FF6EF731A408282704754
:101CE00021B1828A42F00802828204E0828A4FF6A1
:101CF000F7731A408282704721B1828942F4004210
:101D0000828103E08289C2F30E028281704721B191
:101D1000828A42F40062828204E0828A4FF2FF7378
:101D20001A4082827047828A4FF6FB731A40828281
:101D3000828A0A438282704721B1828A42F002027B
:101D4000828204E0828A4FF6FD731A4082827047D5
:101D500002460020B1F5007F00D100BF13880B4080
:101D60000BB1012000E00020704701F40072B2F5D1
:101D7000007F00D100BFCA430280704770B50246A1
:101D8000002400230025002040F66A16B14200D14D
:101D900000BFC1F3421501F01F03012606FA03F349
:101DA000012D02D19689334006E0022D02D1168A18
:101DB000334001E0968A33400C12012606FA04F4FF
:101DC0001688344013B10CB1012000E0002070BD32
:101DD00010B50022002340F66A14A14200D100BFD2
:101DE0000A1201249440A3B2DC43048010BD000019
:101DF000003801400044004000480040004C0040D2
:101E00000050004030B480EA010202F0004530F09A
:101E1000004221F0004013D090B1C30DD40DC2F3A5
:101E20001601C0F31600E41A41F4000140F4000268
:101E30007D34914201D3641C00E04900002C02DA99
:101E400030BC002070474FF400000023914201D3C2
:101E5000891A034340084FEA4101F7D151B1914239
:101E600002D14FF0004105E002D24FF0010101E044
:101E70006FF0010103EBC450284430BC00F004B9FA
:101E80002DE9FE4F81EA030404F0004421F00041F3
:101E900000944FF0000B23F0004350EA01045ED0A1
:101EA00052EA03045BD0C3F30A54C1F30A552C442D
:101EB000A4F2F3340194A0FB0254C1F3130141F4E2
:101EC0008011C3F3130343F4801301FB024400FBAE
:101ED000034E840A970A44EA815447EA8357A4FBD5
:101EE000076802958D0A05FB07854FEA932C04FBD2
:101EF0000C542705029D4FEA065847EA1637B5EB02
:101F000008056EEB070C870E920E47EA811742EA2E
:101F10008312A7FB0201B6EB0B0164EB00042B0D4F
:101F200043EA0C335E1844EB1C50DA465146E7FB9B
:101F30000201C5F313044FEA0B3343EA14534FEA8B
:101F40000432019C43EA0603A4F10C040294009CB1
:101F5000CDE900B400F0DEF803B0BDE8F08F00205A
:101F60000146F9E7C10F80EAE0700844CA079623EA
:101F7000002100F092B870B5C1F30A5201F000459B
:101F80000024C1F3130140F2FF3341F480119A425F
:101F900001DA002070BD40F233439A42A2F233428C
:101FA00003DC524200F060F800E090402C43F1D096
:101FB000404270BD00F0004230F000400AD0C10D38
:101FC00001F56071C0F3160042EA0151C2084007F2
:101FD0001143704700200146704730B50B4601465B
:101FE00000202022012409E021FA02F59D4205D3B8
:101FF00003FA02F5491B04FA02F52844151EA2F162
:102000000102F1DC30BD2DE9F05F0546002092466B
:102010009B4688460646814640241BE028464146AA
:102020004746224600F020F853465A46C01A9141CE
:1020300010D311461846224600F012FA2D1A67EB0B
:1020400001084F4622460120002100F009FA17EB53
:1020500000094E41201EA4F10104DFDC4846314650
:102060002A464346BDE8F09F202A04DB203A21FAA5
:1020700002F00021704721FA02F3D040C2F12002A1
:1020800091400843194670470029A8BF7047401C7B
:10209000490008BF20F00100704710B4B0FA80FC7E
:1020A00000FA0CF050EA010404BF10BC704749B1BB
:1020B000CCF1200421FA04F411FA0CF118BF01212B
:1020C00021430843A3EB0C01CB1D4FEA00614FEA0B
:1020D000102042BF002010BC704700EBC3501044DA
:1020E0000029A4BF10BC7047401C490008BF20F065
:1020F000010010BC704710B5141E73F1000408DA1B
:10210000401C41F1000192185B411A4301D120F0BB
:10211000010010BD2DE9F04D92469B4611B1B1FA78
:1021200081F202E0B0FA80F22032904600F098F995
:1021300004460F4640EA0A0041EA0B0153465A465C
:10214000084313D0114653EA010019D0C8F14002E8
:102150005046FFF789FF05460E465046594642460F
:1021600000F07EF9084305D0012004E020463946FE
:10217000BDE8F08D0020054346EAE0762C43374366
:102180000A986305E40AA0EB08000022FD0A44EA6D
:1021900047540A3002D500200146E9E7010510192D
:1021A0006941DDE9084500196941BDE8F04DA2E744
:1021B0002DE9FE4F804681EA0300C00F0C460090D7
:1021C00021F0004123F00045B8EB0200A94105D2FF
:1021D0004046214690461C460B46024623F00040EE
:1021E000104347D0270DC7F30A00C3F30A510290EA
:1021F000401A019040286BDAC3F3130040F4801BAF
:102200000098924620B10023D2EB030A63EB0B0B3C
:1022100001985946C0F14002504600F021F90646A7
:102220000D4650465946019A00F029F910EB080076
:102230006141002487EA115284EAE7731A4340D0CF
:10224000009A62B3019A012A4FEA075215DC001B7B
:1022500061EB02014FF0004202EA0752CDE9004271
:10226000001C41F5801132462B46FFF753FF03B0A7
:10227000BDE8F08F40462146F9E7001B61EB020103
:10228000001C41F5801300185B412018A2F50017CF
:1022900047EB030140EAD570B6196D4111E06D08B6
:1022A0004FEA360645EAC0754FEA0752001B61EB5C
:1022B0000201001C41F5801149084FEA3000001965
:1022C000514132462B4603B0BDE8F04FFFF713BF34
:1022D0000098012240000023D0EB020263EBE07380
:1022E000009821464FEAE074B8EB000061EB04016E
:1022F000E9E783F000435BE781F0004158E72DE90F
:10230000F04D81EA030404F0004B21F0004514462F
:102310004FF0000A23F0004150EA050220D054EAB1
:1023200001021DD0C5F30A570246C5F31303C1F3DA
:102330001300C1F30A5640F4801543F48013A7EB51
:102340000608101BD64608F2FD3873EB050002D3D1
:1023500008F1010801E092185B41B8F1000F03DABF
:1023600000200146BDE8F08D00204FF480110646A4
:1023700084460EE0171B73EB050705D3121B63EBB6
:10238000050306434CEA010C49084FEA3000921855
:102390005B4150EA0107EDD152EA030012D082EA14
:1023A000040083EA0501084305D0101BAB4106D2A7
:1023B0000122002306E000224FF0004302E06FF00C
:1023C000010253101AEB06004CEB085110EB0A0007
:1023D00041EB0B01BDE8F04DFFF78DBEC1F30A5292
:1023E000C1F3130140F2FF3341F480119A4202DA43
:1023F00000200146704740F233439A42A2F2334232
:1024000002DC5242FFF730BE00F02AB830B5041E9D
:1024100071F1000404DB4FF00044404264EB010121
:10242000141E73F1000405DB1C464FF000435242BA
:1024300063EB0403994208BF904230BD064C074D40
:1024400006E0E06840F0010394E807009847103484
:10245000AC42F6D3FDF74EFEC84A0008E84A000831
:10246000202A04DB203A00FA02F100207047914054
:10247000C2F1200320FA03F3194390407047202A49
:1024800006DBCB17203A41FA02F043EAE07306E09C
:1024900041FA02F3D040C2F12002914008431946AC
:1024A000704700000FB4054B10B503A9044A029809
:1024B00000F0EEF810BC5DF814FB0000D31100082A
:1024C0002C0000200FB4084B10B504A902AA0398F1
:1024D00000F0DEF8044602A9002000F070FC20465F
:1024E00010BC5DF814FB0000BF2D000802E008C816
:1024F000121F08C1002AFAD170477047002001E07E
:1025000001C1121F002AFBD1704700002DE9FF5FB7
:1025100082B00021DDE90430020DDDF840B0034354
:1025200018D044F61050A2F2FF324243151411980D
:1025300001281FD0A5EB0B00401C5FEA000A4FF0FA
:1025400000064E4FDFF83891B046504615D5CAF117
:10255000000413E0119801244AA3012801D16FEA75
:102560000B010298119AC0E90031C0E9024206B09D
:10257000BDE8F09FCBF10000DFE704460021404AB0
:10258000491842EB0450CDE9001012E0E00707D0F3
:1025900032463B4640464946FFF772FC8046894634
:1025A00032463B4610461946FFF76AFC06460F4680
:1025B0006410002CEAD1DDE90401DDE90023BAF161
:1025C000000F06DAFFF75CFC42464B46FFF758FC6B
:1025D00005E0FFF794FE42464B46FFF790FE0446A7
:1025E0000E460022284BFFF711FF03D84FF0FF30B3
:1025F000014607E00022254B20463146FFF7D8FD73
:10260000FFF7ECFE102409E0002C0ADB0A2200236D
:10261000FFF7F9FC039B30321A55641E50EA0102A1
:10262000F2D1641C039AC4F111031444119A012AD3
:1026300003D0012208430DD10AE0084304D0002052
:102640004FF0110B119072E7A3EB0B056D1E0DE01F
:102650005B4504DD4FF0000205F1010504E003DAFB
:102660004FF00002A5F10105002AECD00298119963
:10267000C0E90231C0E9004579E7000000001440DC
:102680000000F03F300000000000F0430000E03F99
:102690002DE9FF4F95B09B468946064600250FE27F
:1026A000252877D100242746F84A0121059400E027
:1026B000044316F8013F203B01FA03F01042F7D122
:1026C00030782A2811D06FF02F033078A0F1300233
:1026D000092A16D8059A44F0020402EB820203EBA1
:1026E00042021044761C0590EFE759F8042B05923E
:1026F000002A03DA504244F40054059044F00204E6
:10270000761C30782E2816D116F8010F44F00404F8
:102710002A280DD06FF02F023078A0F13003092B5A
:1027200009D807EB870302EB4303C718761CF3E7CE
:1027300059F8047B761C30786C280FD006DC4C28C6
:1027400017D068280DD06A2814D104E0742810D05E
:102750007A280FD10DE044F400140AE044F4801408
:1027600001E044F440147278824202D104F58014EE
:10277000761C761C307866280BD013DC582877D06E
:1027800009DC002875D04528F6D04628F4D0472823
:102790001AD19DE118E0632835D0642879D06528E6
:1027A00012D195E1702873D008DC6728F1D0692830
:1027B0006FD06E280DD06F2806D1B5E073282CD0CD
:1027C000752875D0782874D05A46179990476D1C93
:1027D00075E1C4F30250022809D003280DD0D9F8BE
:1027E000001004280DD00D6009F1040967E1D9F843
:1027F0000010EA17C1E90052F6E7D9F800100D8081
:10280000F2E70D70F0E719F8041B8DF800100020B6
:102810008DF80100EA46012003E059F804AB4FF0BF
:10282000FF3061074FF0000102D40DE008F1010113
:102830008846B9420FDA8045F8DB1AF808100029FB
:10284000F4D108E008F1010188468142FADB1AF868
:1028500008100029F6D105985B46A0EB0807214631
:102860003846179A00F094FA284400EB080507E070
:102870004DE029E10DE01AF8010B5A4617999047EF
:10288000B8F10108F7D25B4621463846179A13E1A2
:1028900042E00A220092C4F302524FF0000A022AD8
:1028A00008D059F804CB032A4FEAEC710AD00DE0A6
:1028B00029E02AE009F1070121F00702F2E802C14C
:1028C000914609E00FFA8CFC4FEAEC71042A03D11F
:1028D0004FFA8CFC4FEAEC71002907DA0A46002116
:1028E000DCF1000C61EB02012D2202E0220504D58F
:1028F0002B228DF80420012203E0E20701D02022E0
:10290000F7E7904659E00A2102E010220DE010217D
:102910004FF0000A00910BE010224FF0000A44F043
:1029200004040827009203E008224FF0000A0092F6
:10293000C4F30252022A05D059F804CB0021032A1D
:1029400008D009E009F1070121F00702F2E802C10D
:10295000914605E01FFA8CFC042A01D10CF0FF0C13
:102960004FF00008220728D5702806D0009B83F07E
:10297000100353EA0A0305D00EE040228DF804202C
:10298000012208E05CEA010206D030228DF8042022
:102990008DF8050002229046009B83F0080353EA5D
:1029A0000A030AD15CEA010201D1620705D530228F
:1029B0008DF804204FF001087F1E582804D034A061
:1029C00003900EA802900DE036A0F9E7534660464A
:1029D000009AFFF718FB84460398825C0298401E19
:1029E000029002705CEA0100F0D1029806A9081A70
:1029F00000F1200A600702D524F4803400E00127AA
:102A0000574502DDA7EB0A0000E0002000EB0A01B9
:102A1000009005984144401A0590E00306D45B46B7
:102A20002146179A059800F0B3F90544002706E0FF
:102A300001A85A46C05D179990476D1C7F1C4745F9
:102A4000F6DBE0030CD55B462146179A059800F0AB
:102A50009FF9054404E030205A46179990476D1CB1
:102A60000099481E00900029F5DC08E002980299C0
:102A70005A460078491C0291179990476D1CBAF18B
:102A80000001AAF1010AF1DC65E10000092801005A
:102A900030313233343536373839616263646566D4
:102AA0000000000030313233343536373839414296
:102AB000434445460000000000F058F90544761CE8
:102AC000307800287FF4ECAD19B02846BDE8F08FCF
:102AD000620700D4062709F1070222F0070CFCE880
:102AE0000223E14603F000485FEA080C02D00FF22F
:102AF000702C0DE05FEA045C02D50FF2682C07E051
:102B00005FEAC47C02D00FF2602C01E0AFF2700CDF
:102B10004FF0FF3823F00043CDF850C065280CD0AB
:102B200006DC452809D046281DD047283DD13DE088
:102B3000662818D067287ED138E00021112F01DBEC
:102B4000112000E0781CCDE9000106A90EA8FFF7CE
:102B5000DDFCDDE90F010E9A03910021009207F1DF
:102B6000010A04914DE04FF000400097CDE90110BB
:102B700006A90EA8FFF7CAFCDDE90F0203920E9B1F
:102B800011990022DDF80CA00093049211B9791C70
:102B900000EB010AB7EB0A0004D4C0F1FF3007F1E3
:102BA000010A0490AAEB0700019044E0012F00DA2B
:102BB00001270021112F01DD112000E03846CDE969
:102BC000000106A90EA8FFF7A1FCDDE90F010E9A8E
:102BD0000391002104910092BA4621070CD4039975
:102BE000514500DA8A46BAF1010F05DD009AAAF1D3
:102BF0000101515C302908D0B84202DA10F1040F0B
:102C000006DA0121CDE9011015E0AAF10101E9E799
:102C1000002805DC049901440491AAEB000102E0BC
:102C2000411C514500DD8A460499401A401C019020
:102C30004FF000400290200704D40198504501DB7A
:102C4000CDF8048000208DF84F0002980DF14F0759
:102C5000B0F1004F25D02B200E9002984FF00208C3
:102C600000280CDA404202902D200E9007E00A2145
:102C70000298FFF7B2F93031029007F8011DB8F160
:102C80000001A8F10108F2DC02980028EFD1791EBA
:102C90000E980870307800F0200040F0450007F8EA
:102CA000020D12A8C01B00F107081498007800B1AB
:102CB000012000EB0A01019801EBE0710598414405
:102CC000401A401E0590E00306D45B462146179A41
:102CD000059800F05DF805441498007818B15A463C
:102CE000179990476D1CE00324D55B462146179A3F
:102CF000059800F04DF805441CE00498002807DB17
:102D0000DDE90301884203DD0098405C179901E08A
:102D1000179930205A469047049805F10105401C48
:102D200004900198401E019004D12E205A46179914
:102D300090476D1CBAF10001AAF1010ADDDC05E043
:102D400017F8010B5A46179990476D1CB8F100010E
:102D5000A8F10108F4DC5B462146179A0598ABE61A
:102D60002D0000002B000000200000002DE9F041A4
:102D7000044600251E461746880404D405E039465B
:102D80002020B0476D1C641EF9D52846BDE8F081AF
:102D90002DE9F041044600251E469046C80301D5A2
:102DA000302700E02027880404D505E04146384656
:102DB000B0476D1C641EF9D52846BDE8F0810A684D
:102DC000531C0B60107070472000000000000000D2
:102DD00000000000000000000000000000000000F3
:102DE000002F000000000700070000147F147F146C
:102DF00000242A7F2A1200626408132300364955F2
:102E0000225000000503000000001C2241000000C9
:102E100041221C000014083E08140008083E08085F
:102E2000000000A0600000080808080800006060BA
:102E30000000002010080402003E5149453E0000F9
:102E4000427F4000004261514946002141454B31DB
:102E5000001814127F10002745454539003C4A49A7
:102E60004930000171090503003649494936000619
:102E70004949291E00003636000000005636000081
:102E800000081422410000141414141400004122FC
:102E9000140800020151090600324959513E007CD4
:102EA0001211127C007F49494936003E41414122BE
:102EB000007F4141221C007F49494941007F0909A7
:102EC0000901003E4149497A007F0808087F000057
:102ED000417F4100002040413F01007F0814224112
:102EE000007F40404040007F020C027F007F0408CA
:102EF000107F003E4141413E007F09090906003E26
:102F00004151215E007F091929460046494949314E
:102F10000001017F0101003F4040403F001F204071
:102F2000201F003F4038403F00631408146300072F
:102F30000870080700615149454300007F41410086
:102F400000552A552A55000041417F000004020126
:102F50000204004040404040000001020400002004
:102F600054545478007F4844443800384444442042
:102F700000384444487F00385454541800087E09EF
:102F800001020018A4A4A47C007F080404780000B7
:102F9000447D4000004080847D00007F1028440074
:102FA0000000417F4000007C04180478007C080485
:102FB000047800384444443800FC242424180018C1
:102FC000242418FC007C08040408004854545420AD
:102FD00000043F444020003C4040207C001C204036
:102FE000201C003C4030403C004428102844001C79
:102FF000A0A0A07C004464544C4414141414141471
:103000000000000000000000000000000000FC00C4
:103010000000000002000000000C020C0200000092
:103020000000000090D0BCD0BC9000030003000062
:103030001824FE448C000302070201001824D8B0B3
:103040004C80000300010201C038E438E0000102B6
:10305000020102020806000000000000000000005B
:10306000000000F80402000000010204000204F85D
:1030700000000004020100009060F8609000000071
:10308000010000002020FC202000000001000000C2
:1030900000000000000008060000000020202020A2
:1030A00020000000000000000000000000000002FE
:1030B000000000000080601C02000403000000000B
:1030C000F8040404F8000102020201000008FC00F8
:1030D00000000002030200001884442418000302C8
:1030E0000202020008042424D800010202020100A6
:1030F00040B088FC80000000000302003C2424242F
:10310000C400010202020100F824242CC0000102C4
:10311000020201000C04E41C040000000300000093
:10312000D8242424D8000102020201003844444477
:10313000F80000030202010000001000000000007F
:103140000200000000002000000000000600000057
:10315000002050880402000000000102909090902E
:1031600090000000000000000002048850200002CF
:10317000010000001804C424180000000200000030
:10318000F804E494F80001020202020000E09CF05E
:10319000800002030000030204FC2424D800020380
:1031A00002020100F80404040C0001020202010002
:1031B00004FC0404F80002030202010004FC24746D
:1031C0000C0002030202030004FC24740C0002033E
:1031D00002000000F0080444CC400001020201009B
:1031E00004FC2020FC040203000003020404FC048D
:1031F0000400020203020200000404FC04040604AA
:103200000403000004FC24D00C04020302000302A7
:1032100004FC04000000020302020203FC3CC03C68
:10322000FC0003000300030004FC30C4FC040203A0
:1032300002000300F8040404F80001020202010085
:1032400004FC24241800020302000000F884840413
:10325000F80001020207050004FC24649800020340
:1032600002000302182424448C000302020201001D
:103270000C04FC040C0000020302000004FC00002B
:10328000FC04000102020100047C80E01C04000038
:10329000030000001CE03CE01C00000300030000F1
:1032A000049C609C0400020300030200041CE01C58
:1032B00004000002030200000C84641C04000203EA
:1032C000020203000000FE020200000007040400E6
:1032D000000E30C00000000000010200000202FEEB
:1032E00000000004040700000004020400000000C5
:1032F000000000000000000000000808080808089E
:103300000000020000000000000000000040A0A03B
:10331000C00000010202030204FC2020C0000003E0
:103320000202010000C02020600000010202020031
:1033300000C02024FC0000010202030200C0A0A083
:10334000C0000001020202000020F8242404000250
:10335000030202000040A0A0602000070A0A0A043D
:1033600004FC2020C0000203020003020020E4004D
:103370000000000203020000000020E40000080832
:103380000807000004FC80E0202002030200030282
:103390000404FC000000020203020200E020E0201E
:1033A000C00003000300030020E02020C00002034F
:1033B0000200030200C02020C00000010202010040
:1033C00020E02020C000080F0A02010000C02020D9
:1033D000E0000001020A0F0820E040202000020364
:1033E000020000000060A0A0200000020202030012
:1033F0000020F820000000000102020020E0002070
:10340000E00000010202030220E0208060200000B2
:10341000030100006080E080600000030003000002
:1034200020608060200002030003020020E0208072
:1034300060200808070100000020A06020000002B2
:1034400003020200000020DE02000000000704006A
:10345000000000FF00000000000F00000002DE205E
:103460000000000407000000020102040402000042
:10347000000000000000000000000000000000004C
:1034800000000000000000F8000000000000003311
:103490003000000000100C06100C060000000000B8
:1034A0000000000040C07840C0784000043F0404A1
:1034B0003F040400007088FC08300000001820FF62
:1034C000211E0000F008F000E018000000211C039D
:1034D0001E211E0000F00888700000001E21232419
:1034E0001927211010160E00000000000000000037
:1034F00000000000000000E01804020000000007C7
:103500001820400000020418E000000000402018CD
:1035100007000000404080F0804040000202010FA0
:1035200001020200000000F0000000000101011F84
:1035300001010100000000000000000080B07000E8
:103540000000000000000000000000000001010178
:103550000101010100000000000000000030300007
:1035600000000000000000008060180400601806E1
:103570000100000000E010080810E000000F10201B
:1035800020100F00001010F8000000000020203F65
:1035900020200000007008080888700000302824EF
:1035A0002221300000300888884830000018202090
:1035B00020110E000000C02010F8000000070424B5
:1035C000243F240000F808888808080000192120FA
:1035D00020110E0000E0108888180000000F112054
:1035E00020110E0000380808C83808000000003F0D
:1035F000000000000070880808887000001C22216C
:1036000021221C0000E010080810E0000000312218
:1036100022110F00000000C0C000000000000030B8
:10362000300000000000008000000000000080600A
:10363000000000000000804020100800000102048B
:103640000810200040404040404040000404040472
:10365000040404000008102040800000002010082E
:1036600004020100007048080808F0000000003063
:1036700036010000C030C828E810E00007182724F1
:1036800023140B000000C038E0000000203C23029F
:103690000227382008F8888888700000203F202002
:1036A00020110E00C0300808080838000718202034
:1036B0002010080008F808080810E000203F20202B
:1036C00020100F0008F88888E8081000203F20200C
:1036D0002320180008F88888E8081000203F200000
:1036E00003000000C0300808083800000718202038
:1036F000221E020008F808000008F808203F2101F7
:1037000001213F20000808F8080800000020203FA1
:103710002020000000000808F8080800C080808011
:103720007F00000008F888C028180800203F20010A
:103730002638200008F8080000000000203F202064
:103740002020300008F8F800F8F80800203F003F7B
:10375000003F200008F830C00008F808203F200093
:1037600007183F00E01008080810E0000F102020A4
:1037700020100F0008F808080808F000203F210179
:1037800001010000E01008080810E0000F182424D0
:1037900038504F0008F8888888887000203F200043
:1037A000030C3020007088080808380000382021F9
:1037B00021221C00180808F8080818000000203F03
:1037C0002000000008F808000008F808001F20206A
:1037D00020201F000878880000C83808000007383B
:1037E0000E010000F80800F80008F800033C07008C
:1037F000073C0300081868808068180820302C03F4
:10380000032C30200838C800C83808000000203FCA
:103810002000000010080808C838080020382621B9
:1038200020201800000000FE020202000000007FBD
:1038300040404000000C30C00000000000000001CB
:103840000638C00000020202FE00000000404040B6
:103850007F000000000004020202040000000000DB
:103860000000000000000000000000008080808058
:103870008080808000020204000000000000000040
:1038800000000000000080808080000000192422D9
:1038900022223F2008F8008080000000003F112015
:1038A00020110E000000008080800000000E11201A
:1038B00020201100000000808088F800000E1120F8
:1038C00020103F200000808080800000001F222206
:1038D00022221300008080F0888888180020203F72
:1038E000202000000000808080808000006B949485
:1038F0009493600008F8008080800000203F210041
:1039000000203F2000809898000000000020203F09
:1039100020200000000000809898000000C08080F7
:10392000807F000008F8000080808000203F240293
:103930002D302000000808F8000000000020203F83
:10394000202000008080808080808000203F200038
:103950003F20003F8080008080800000203F2100C9
:1039600000203F200000808080800000001F202079
:1039700020201F00808000808000000080FFA120A8
:1039800020110E000000008080808000000E1120B9
:1039900020A0FF80808080008080800020203F2148
:1039A00020000100000080808080800000332424FB
:1039B00024241900008080E0808000000000001FA7
:1039C000202000008080000000808000001F202058
:1039D00020103F20808080000080808000010E3019
:1039E0000806010080800080008080800F300C037A
:1039F0000C300F0000808000808080000020312E7D
:103A00000E312000808080000080808080818E7058
:103A10001806010000808080808080000021302C0A
:103A20002221300000000000807C02020000000023
:103A3000003F404000000000FF00000000000000C8
:103A4000FF0000000002027C800000000040403FB8
:103A50000000000000060101020204040000000052
:103A60000000000000000000000000000000000056
:103A70000000000000000000000000000000000046
:103A800000000000000000000000000000F0F0F066
:103A9000000000000000000000017F0100000000A5
:103AA00000000000001C1C1C0000000000008060E2
:103AB000301C8C60301C0C00000000000000000076
:103AC00000000000000000000000000000000000F6
:103AD000000000E00000000000E000000086E69F1B
:103AE00086868686E69F860000011F01010101018E
:103AF0001F010100000080C06020F820E0C000002D
:103B0000000003070C18FF70E18100000000070FA0
:103B100010107F100F070000806020608000000000
:103B2000E02000000F3020309F70DC371030C000E4
:103B30000000100E03000718101807000000C02036
:103B400020E0C0000000000080E01F38E88703C4C8
:103B50003C040000070F1810100B070D1010080090
:103B600000808C4C380000000000000000000000C5
:103B70000000000000000000000000000000000045
:103B80000000000000000000000080E03008040099
:103B90000000000000FEFF01000000000000000027
:103BA0000000030F1820400000040830E0800000EF
:103BB000000000000000000001FFFE000000000007
:103BC000004020180F03000000000000000000006B
:103BD0000000C00000000000004266663C18FF18AC
:103BE0003C66664200000000000003000000000088
:103BF0000000000000008000000000000010101015
:103C00001010FF1010101010000000000000030042
:103C100000000000000000000000000000000000A4
:103C200000000000000000000000000000808C4C3C
:103C3000380000000000000000000000000000004C
:103C400000000000001010101010101010101000D4
:103C50000000000000000000000000000000000064
:103C60000000000000000000000000000000000054
:103C70000000000000001C1C1C00000000000000F0
:103C80000000000000000000E0380C000000000010
:103C900080701C03000000000060380E010000006E
:103CA00000000000000080C060202060C080000094
:103CB00000FEFF010000000001FFFE000001070EF2
:103CC000181010180E0701000000808080C0E0006E
:103CD000000000000000000000FFFF0000000000E6
:103CE00000001010101F1F10101000000080402056
:103CF00020202060C08000000003030080402038A6
:103D00001F070000001C1A1918181818181F0000A7
:103D10000080C020202060C080000000000303005D
:103D20001010182FE780000000070F101010101857
:103D30000F070000000000000000C0E0F0000000DD
:103D400000C0B088868180FFFF80800000000000F6
:103D50000010101F1F1010000000E0606060606025
:103D60006060000000003F1008080818F0E0000044
:103D700000070B101010101C0F030000000080C083
:103D800040202020E0C0000000FCFF2110080808AF
:103D900018F0E0000001070C18101010080F0300C5
:103DA0000000C0E06060606060E060000000030050
:103DB0000000E0180700000000000000001F1F00C6
:103DC000000000000080C0602020202060C0800033
:103DD0000087EF2C1818303068CF830000070F08D9
:103DE00010101010180F07000000C0C02020202065
:103DF000C0800000001F3F604040402010FFFE00D8
:103E000000000C1C101010080F0300000000000040
:103E1000000000000000000000000000000E0E0E78
:103E20000000000000000000001C1C1C000000003E
:103E30000000000000000000000000000000000082
:103E4000000C0C00000000000000000000583800CA
:103E50000000000000000000000000804020100072
:103E60000000102844820100000000000000000053
:103E70000000010204081000000000000000000023
:103E8000000000000084848484848484848484000A
:103E900000000000000000000000000000001020F2
:103EA00040800000000000000000000000000182CF
:103EB0004428100000001008040201000000000067
:103EC00000C020201010101030E0C00000030300DC
:103ED00000F010080C070300000000001C1C1C0070
:103EE00000000000000000C0406020202040C00012
:103EF00000FCFF01F00E03C1FE03807F0001070EEE
:103F000008111110110904020000000080E0E00017
:103F1000000000000000807C4340477FF8800000E4
:103F200010181F1000000000131F1C1020E0E020DC
:103F300020202060C080000000FFFF10101010182B
:103F40002FE78000101F1F1010101010180F07000F
:103F5000000080C0402020202060E00000FCFF0125
:103F600000000000000001000001070E18101010F2
:103F70000804030020E0E02020202040C080000052
:103F800000FFFF000000000001FFFE00101F1F10D7
:103F9000101018080E07010020E0E020202020204B
:103FA0002060800000FFFF101010107C0000000057
:103FB000101F1F10101010101018060020E0E02035
:103FC000202020206060800000FFFF101010107C77
:103FD00000000100101F1F10000000000000000082
:103FE000000080C06020202040E0000000FCFF01B5
:103FF00000004040C0C140400001070E18101010E2
:104000000F0F000020E0E0200000000020E0E02092
:1040100000FFFF101010101010FFFF00101F1F10E6
:1040200000000000101F1F100000202020E0E020F2
:10403000202000000000000000FFFF000000000042
:1040400000001010101F1F101010000000000000D2
:10405000202020E0E020202000000000000000FFE1
:10406000FF0000000060E0808080C07F3F00000013
:1040700020E0E020000020A06020200000FFFF30B2
:10408000187CE3C000000000101F1F100000011387
:104090001F1C181020E0E0200000000000000000BD
:1040A00000FFFF000000000000000000101F1F10B4
:1040B000101010101018060020E0E0E000000000D2
:1040C000E0E0E02000FF013FFEC0E01E01FFFF0036
:1040D000101F1000031F0300101F1F1020E0E0C07E
:1040E000000000000020E02000FF0003071C78E033
:1040F0008000FF00101F100000000000030F1F00D1
:10410000000080C060202060C080000000FEFF0131
:104110000000000000FFFE000001070E181010183C
:104120000C07010020E0E0202020202060C080005B
:1041300000FFFF2020202020301F0F00101F1F1025
:104140000000000000000000000080C0602020602F
:10415000C080000000FEFF010000000000FFFE0024
:104160000001070E1111133C7C67210020E0E020C4
:104170002020202060C0800000FFFF101030F0D011
:10418000080F0700101F1F10000000030F1C101065
:104190000080C060202020204040E00000070F0C7D
:1041A0001818303060E08100001F0C08101010104B
:1041B000180F07008060202020E0E0202020608091
:1041C0000100000000FFFF000000000100000000EF
:1041D000101F1F100000000020E0E0200000000081
:1041E0000020E02000FFFF00000000000000FF00B2
:1041F00000070F1810101010100807002060E0E0F2
:104200002000000020E060200000077FF880008090
:104210007C03000000000000071F1C0700000000D6
:1042200020E0E02000E0E0200020E0200007FFF890
:10423000E01FFFFCE01F00000000031F0300011F40
:1042400003000000002060E0A0000020E0602000EB
:10425000000000038F7CF8C6010000000010181E4B
:10426000130001171F1810002060E0E0200000007C
:1042700020E06020000001073EF8E0180700000081
:1042800000000010101F1F101000000000806020B0
:10429000202020A0E0E0200000000000C0F03E0F41
:1042A0000300000000101C1F17101010101806004B
:1042B0000000000000FC04040404040000000000EE
:1042C00000FF00000000000000000000007F4040F0
:1042D00040404000000010E000000000000000002E
:1042E00000000000031C60800000000000000000CF
:1042F000000000030C70800000000404040404FCAF
:104300000000000000000000000000FF00000000AE
:10431000000040404040407F0000000000000010CE
:10432000080C040C08100000000000000000000051
:10433000000000000000000000000000000000007D
:10434000000000000000000000000000000000006D
:10435000000000000000000080808080808080805D
:104360008080808000000004040808000000000035
:10437000000000000000000000000000000000003D
:10438000000000000000000000000000000000002D
:1043900000000000000098D844642424FCF80000C9
:1043A000000F1F18101010081F1F10180020E0F039
:1043B00000000000000000000000FFFF18080404D7
:1043C0000CF8F00000001F0F18101010180F030059
:1043D00000000000000000000000000000E0F818ED
:1043E0000404043C3800000000030F0C10101010EF
:1043F000080600000000000000000020E0F00000BF
:1044000000E0F81C04040408FFFF000000030F187C
:10441000101010081F0F080000000000000000002E
:10442000000000000000E0F8484444444C7870006C
:104430000000030F0C18101010080400000000000A
:1044400080C0602020E0C00000040404FFFF0404DA
:1044500004040000000010101F1F101010000000C6
:10446000000000000000000000000000000070F8E4
:104470008C04048CF874040C007076CF8D8D8D89BB
:10448000C87870000020E0F000000000000000008C
:104490000000FFFF08040404FCF8000000101F1FC8
:1044A000100000101F1F10000000000000606000DE
:1044B000000000000000040404FCFC0000000000F8
:1044C00000001010101F1F1010100000000000004E
:1044D000000000606000000000000000040404FC14
:1044E000FC0000000000C0C08080C07F3F000000D2
:1044F0000020E0F000000000000000000000FFFFCE
:1045000080C0F41C0404000000101F1F1100031FD2
:104510001C1010000000202020E0F000000000002F
:104520000000000000FFFF0000000000000010106D
:10453000101F1F10101000000000000000000000FD
:104540000000000004FCFC0804FCFC0804FCFC0067
:10455000101F1F10001F1F10001F1F100000000061
:1045600000000000000000000004FCFC0808040437
:10457000FCF8000000101F1F100000101F1F10008B
:1045800000000000000000000000000000E0F01843
:104590000C04040C18F0E00000030F0C10101010B5
:1045A0000C0F0300000000000000000000000000ED
:1045B0000004FCFC080404040CF8F0000080FFFF79
:1045C000889010101C0F0300000000000000000085
:1045D0000000000000E0F81C04040408F8FC0000DF
:1045E00000030F1810109088FFFF800000000000EB
:1045F0000000000000000000040404FCFC1008049B
:10460000040C0C001010101F1F10101000000000F0
:1046100000000000000000000000000000003078F2
:10462000CCC48484840C1C0000001E1810101011CF
:10463000190F06000000000000C00000000000008C
:1046400000040404FFFF0404040000000000000054
:104650000F1F1010100C00000000000000000000F0
:10466000000000000004FCFE00000004FCFE00004E
:1046700000000F1F181010081F0F08000000000096
:10468000000000000000000000040C3CFCC400001E
:10469000C43C0C0400000000010F1E0E01000000CD
:1046A000000000000000000000000000043CFCC40A
:1046B00000E47CFC84807C040000071F07000007E6
:1046C0001F070000000000000000000000000000C4
:1046D0000004041C7CE4C0341C0404000010101C02
:1046E0001601131F1C18100000000000000000003D
:1046F0000000000000040C3CFCC400C43C040400A6
:104700000000C080C1370E01000000000000000062
:10471000000000000000000000001C0404C4F47C41
:104720001C0400000000101C1F17111010180E00B0
:1047300000000000000000F80C0400000000000071
:10474000001028EF00000000000000000000003F03
:1047500060400000000000000000FF0000000000BA
:10476000000000000000FF0000000000000000004A
:104770000000FF00000000000000040CF800000032
:104780000000000000000000EF2810000000000002
:10479000000040603F00000000000000001806021A
:1047A0000204081020203008000000000000000073
:1047B00000000000000000000000000000000000F9
:1047C0001060028C0000FE9292929292FE00000015
:1047D00004047E01407E42427E427E42427E400090
:1047E0000000FC242424FC252624FC24242404008A
:1047F00040308F80844C55252525554C8080800085
:10480000000000C080808080808080FC8480808068
:10481000808080C0C0000000000000FF7F4040405A
:10482000404040FF40404040404040FF7F0000008B
:1048300000000000000000000000007F7000000089
:104840000000000000000000000000000000000068
:1048500000000000000000FCF80000000000000064
:10486000000000000000000000000000FFFE020247
:1048700002020202020202FFFF020202020202021E
:104880000202FF0300000000000000001F1F0404DC
:1048900004040404040404FFFF04040404040404E2
:1048A00004041F00000000000000000000000000E1
:1048B000000000000000007F3F000000000000003A
:1048C00000000000000000000000000000000000E8
:1048D00000000000000000000000000000000000D8
:1048E0000000000000F8F8F0F07020000000000068
:1048F00000000000000000000000000000000000B8
:1049000000000000000000000000000000000000A7
:104910008000000000000000000000000000000017
:104920000000000000FFFFFFFF000000000000008B
:104930000000000000000000000000008080000077
:104940000000000000000000000000000000000067
:1049500000FFFFFE06060606060606060606060613
:104960000606060606FFFFFFFF0606060606060603
:104970000606060606060606060606FFFFFFFF07F2
:104980000200000000000000000000000000000025
:1049900000FFFFFF0000000000000000000000001A
:1049A0000000000000FFFFFFFF000000000000000B
:1049B0000000000000000000000000FFFFFFFF00FB
:1049C00000000000000000000000000000000000E7
:1049D00000FFFFFF181818181818181818181818BA
:1049E0001818181818FFFFFFFF18181818181818AB
:1049F0001818181818181818181818FFFFFFFF00B3
:104A000000000000000000000000000000000000A6
:104A10000201010000000000000000000000000092
:104A20000000000000FFFFFFFF000000000000008A
:104A30000000000000000000000000010100000074
:104A40000000000000000000000000000000000066
:104A50000000000000000000000000000000000056
:104A60000000000000FFFFFFFF000000000000004A
:104A70000000000000000000000000000000000036
:104A80000000000000000000000000000000000026
:104A90000000000000000000000000000000000016
:104AA00000000000001F1F0F0F00000000000000AA
:104AB00000000000000000000000000000000000F6
:104AC0000000000000000000E84A0008000000208C
:104AD00030000000EC240008184B000830000020D3
:104AE00080080000FC24000800A24A040000000026
:104AF000000000000102030406070809000000008E
:104B00000000000001020304010203040607080973
:084B1000020406080000000089
:04000005080000ED02
:00000001FF
