:020000040800F2
:10000000005000203D4D0008294D00082B4D0008F0
:100010002D4D00082F4D0008314D00080000000054
:10002000000000000000000000000000334D000848
:10003000354D000800000000374D0008394D00081C
:10004000854D0008854D0008854D0008854D000848
:10005000854D0008854D0008854D0008854D000838
:10006000854D0008854D0008854D0008854D000828
:10007000854D0008854D0008854D0008854D000818
:10008000854D0008854D0008854D0008854D000808
:10009000854D0008854D0008854D0008854D0008F8
:1000A000854D0008854D0008854D0008854D0008E8
:1000B000854D0008854D0008854D0008854D0008D8
:1000C000854D0008854D0008854D0008854D0008C8
:1000D000854D0008854D0008854D0008854D0008B8
:1000E000854D0008854D0008854D00080000000082
:1000F0000000000000000000000000000000000000
:0C01000000000000000000005FF808F1A3
:100110000348044B834202D0034B03B11847704796
:10012000D0010020D0010020000000000548064B4F
:100130001B1AD90F01EBA301491002D0034B03B1E5
:1001400018477047D0010020D001002000000000B7
:1001500010B5064C237843B9FFF7DAFF044B13B10F
:100160000448AFF300800123237010BDD0010020AC
:1001700000000000884D000808B5044B1BB104497D
:100180000448AFF30080BDE80840CFE7000000005E
:10019000D4010020884D000870B50F4B0F4DAB42C5
:1001A000A3EB050607D00024B61055F8043B013434
:1001B0009847A642F9D804F0E7FD094D094B5E1BAC
:1001C000AB424FEAA60606D0002455F8043B0134A2
:1001D0009847A642F9D870BD7851000878510008B8
:1001E000785100087C51000870B5860747D0541E2E
:1001F000002A3ED00346CAB201E0013C39D303F8DD
:10020000012B9D07F9D1032C2CD9CDB205EB052587
:100210000F2C1A4605EB054534D9A4F1100C2CF02F
:100220000F0603F1100EB6444FEA1C1C1560556012
:100230009560D56010327245F8D10CF1010214F0CE
:100240000C0F03EB021204F00F0C13D0ACF10403FB
:1002500023F003030433134442F8045B9A42FBD1B6
:100260000CF003042CB1C9B21C4403F8011B9C42DE
:10027000FBD170BD64461346002CF4D1F9E7034668
:100280001446C0E7A446E1E72DE9F043002B89B00E
:100290001646DDE912191F46109CDDF850805BDB25
:1002A000002528F02003462B0D70CDF8089040D093
:1002B000452B19D00223009307AB049306AB03939D
:1002C00032463B46019400F045FEB8F1670F054603
:1002D00017D1119BDB0717D4079B2846159A5B1B88
:1002E000136009B0BDE8F0830223009307AB0493C9
:1002F000013406AB039332463B46019400F02AFEDC
:100300000546B8F1470FE4D03046394600220023B5
:100310002C4404F027FB08B12346DEE7079B9C42F0
:10032000DBD930215A1C07921970079BA342F9D3DD
:10033000D3E70323009307AB049306AB0393324642
:100340003B46019400F006FE03780546302B08D0AA
:10035000D9F800301C44D7E703F100432D251F4690
:100360009FE7002200233046394604F0FBFA0028BC
:10037000EED1C4F10103C9F800301C44C4E700BF4A
:100380000029B4BF2D232B2370B5B8BF49420929DA
:1003900082B0027000F1020443702BDD0DF10705FD
:1003A0002B461A4E8E469C46A6FB0132D20802EB23
:1003B0008203A1EB43033033BEF1630F0CF8013C21
:1003C00011460CF1FF33EDDC303103F8011CACF1C8
:1003D0000203AB4217D2621E13F8011BAB4202F8B4
:1003E000011FF9D10DF10903A3EB0C032344181AE3
:1003F00002B070BD30222346114403F8022B617015
:10040000181A02B070BD2346FAE700BFCDCCCCCCA1
:100410002DE9F04F91B00C46DDF8688016461F4676
:10042000054601F021FD036818460A9300F0C4FC5C
:1004300000230E93D8F800300B90073323F0070306
:1004400003F10802D4F800A094F818B0C8F800200E
:10045000D3E9008929F000430993CDF820804FF0BB
:10046000FF32DDE90801C4E912899A4B04F0ACFAC5
:1004700048B9DDE908014FF0FF32964B04F086FAE7
:10048000002800F0A08042464B464046494604F012
:100490009BFA002840F0608263685A1C3AD0BBF196
:1004A000670F5FD0BBF1470F00F09A814AF480617B
:1004B000009321600191002106910EA905910DA9DB
:1004C00003910DF1330142464B462846CDF810B05A
:1004D0000291FFF7D9FE8046BBF1650F40F27B82A7
:1004E000BBF1660F0D9900F094810E9B8B4200F3D7
:1004F0009A8123682161D80701D54B1C23614FF0F5
:100500000009A1659DF83330002B74D02D2384F8A9
:10051000433070E04AF4806121600191002106209F
:1005200006910EA9CDF810B0606005910DA9039158
:100530000DF13301424600904B4628460291FFF7E9
:10054000A3FEBBF1670F804627D0BBF1470FC3D195
:100550000D99C81C03DB6368994240F32A81452248
:10056000934620E0002B40F070814AF48061012026
:10057000CDF810B021600191002142464B46069112
:10058000606000900EA905910DA903910DF1330152
:1005900028460291FFF778FE80460D99CB1C80F229
:1005A000048165229346013904F150000D91FFF753
:1005B000E7FE0E9A81461318012A236140F3408119
:1005C000013323619EE7404649460022002304F0A0
:1005D000D3F910B12D2384F843302AF004032360AB
:1005E00003233D4A23613D4B4FF00009BBF1470F08
:1005F00094BF9046984633462146284600970FAA56
:1006000000F0F2F9013024D023685A052CD4424678
:10061000314628462369B84701301AD0236813F0C1
:10062000020FE0680F9B19D0984217DD4FF00008C9
:1006300004F1190904E0E0680F9BC21A42450DDD80
:1006400001234A4631462846B847013008F10108DF
:10065000F1D14FF0FF3011B0BDE8F08F9842B8BF34
:10066000184611B0BDE8F08FBBF1650F3AD9D4E957
:1006700012010022002304F075F9002863D0012341
:1006800031462846164AB8470130E2D0DDE90D3838
:10069000434502DB2368D807C1D5DDE90A2331468B
:1006A0002846B8470130D4D0B8F1010F08F1FF3A1D
:1006B000B4DD4FF0000804F11A0901E0D045ADD0D7
:1006C00001234A46314628469844B8470130F5D1BF
:1006D000BFE700BFFFFFEF7F34500008385000082D
:1006E00044500008DDF838A0BAF1010F64DD0123A1
:1006F000424631462846B8470130AAD0DDE90A23F0
:1007000031462846B8470130A3D0D4E9120100226F
:10071000002304F027F9002800F08D80BAF1010FC2
:100720000AF1FF3B52DD4FF0000804F11A0A01E024
:10073000D8454BD001235246314628469844B84705
:100740000130F5D185E70D9B002B40F392800E9B85
:10075000D4F858A09B465345A8BFD346BBF1000F21
:10076000089309DD5B46424631462846B8470130CA
:100770003FF46FAFD4F858A02BEAEB7BDA4540F397
:10078000BF804FF0000904F11A0A05E0A36DA3EB46
:100790000B024A4540F3B3800123524631462846B6
:1007A0009944B8470130F1D153E7636899423FF764
:1007B000F8AE4FF0670B98E6DB0798D4424601236A
:1007C00031462846B84701303FF443AF4B463146E7
:1007D000284604F15002B84701307FF41FAF38E7D4
:1007E000002B72D04AF480610093CDF810B02160E4
:1007F0000191002142464B4606910EA905910DA993
:1008000003910DF1330128460291FFF73DFD80462B
:100810009EE6002925DD63682161002B63D001334A
:100820000B4423616BE60029CCBF0122C1F1020217
:100830001344236163E60AF1FF3308F10102BFE7C5
:100840002268D2077FF55EAEBAE64AF48061009373
:10085000CDF810B021600191002142464B4606912F
:1008600090E66368002B43D12268D20740D401236D
:10087000DFE7012331462846584AB84701303FF4A4
:10088000E8AEDDE90D3959EA030333D0DDE90A2387
:1008900031462846B84701303FF4DBAE0D9B002BB4
:1008A00080F290804FF0000A04F11A0B04E00D9BD7
:1008B0005B42534540F3868001235A463146284621
:1008C0009A44B8470130F2D1C3E64AF4806101206E
:1008D000CDF810B0216001910021424606914B46AF
:1008E0006060009089E72268D0077FF508AE96E740
:1008F00002339EE72368D9077FF591AEC6E79A4693
:100900000D9B089A9A423CDC2268D20739D4089A97
:10091000D31AA2EB0A0A9A45D146A8BF994629EAFA
:10092000E97A53457FF77AAE4FF00008DDF820B042
:1009300004F11A0907E00D9BABEB0303A3EB0A03D9
:1009400043457FF76BAE01234A463146284698441B
:10095000B8470130EFD17CE64B46002BBCBF2D23BE
:1009600084F843302AF00403236003231C4A2361E4
:100970001C4B4FF00009BBF1470F94BF90469846BF
:1009800039E63146DDE90A232846B84701303FF40D
:1009900060AE089A0D9BA2EB0A09D31A9945A8BF2D
:1009A0009946B9F1000F9346B9DD4B4631462846CA
:1009B00008EB0A02B84701303FF44BAE5A460D9B94
:1009C000D31AACE74B46424631462846B847013079
:1009D0007FF424AE3DE65A460D99E4E54450000804
:1009E0003C500008405000082DE9F84F92461F4641
:1009F0000A698B680C469A42B8BF1A46CAF80020AA
:100A000091F843300646DDF8289013B10132CAF858
:100A10000020226891065FD5DAF800300233CAF868
:100A20000030226812F0060F11461DD1E16899428C
:100A3000D8BF114618DD4FF0000804F1190B05E08E
:100A4000E568DAF80030ED1A45450CDD01235A4619
:100A500039463046C847013008F10108F0D14FF05F
:100A6000FF30BDE8F88F216894F84330003B18BF91
:100A700001238A060AD53021E21882F8431094F83F
:100A800045105A1C2244023382F84310394630463E
:100A900004F14302C8470130E1D02368DAF80010BE
:100AA00003F00603042BE2681DD0A3682269934279
:100AB00022DD4FF000089B1A984400251A3401E00B
:100AC000454519DA0123224639463046C8470130E8
:100AD00005F10105F4D1C2E712F0060F0FD0003B7B
:100AE00018BF0123D2E7511AA368226921EAE178ED
:100AF0009342E0DC0029E0DC0020BDE8F88FE168EB
:100B0000DAF800309942D8BF114694DCACE700BF58
:100B10002DE9F04717460A7E84B00C4606469846F3
:100B20000C9D01F1430C002A33D0A2F15803D9B235
:100B3000202967D8202B65D8DFE813F0DE00640099
:100B40006400640064006400640064006400640085
:100B50006400A7006E0064006400640064006E001E
:100B6000640064006400640021008000C10064002F
:100B70006400B1006400800064006400E400236845
:100B80001A0640F1E1802B686269191D29601B6813
:100B90001A600023E14623613B4621463046CDF8EA
:100BA000008003AAFFF720FF013020D04A463946D3
:100BB00030462369C047013019D02368E0689B079D
:100BC000DDF80C9018D5484516DD002504F1190A0A
:100BD00004E0E068A0EB0903AB420DDD01235246BF
:100BE00039463046C047013005F10105F1D14FF0DB
:100BF000FF3004B0BDE8F0874845B8BF484604B0B0
:100C0000BDE8F087012084F8422004F14209002366
:100C1000206184F84330BFE723681A0602D45806DF
:100C200000F1A88029680A68043129601146002A69
:100C3000C0F2A7804FF00A0E5D4811E02368190644
:100C400040F18E802B68191D296019686F2A14BF26
:100C50004FF00A0E4FF0080E5548002384F8433039
:100C60006268002AA2604FDB236823F0040323603C
:100C7000002949D1002A40F09380E146BEF1080FD7
:100C800053D0ACEB0903236186E72A680120116881
:100C900004322A6004F1420984F84210B7E72B6855
:100CA00000211A1D2A60D3F800906268484601F0BE
:100CB000F3F800287AD0A0EB09006060A7E723686A
:100CC00043F02003236078223A4884F845202A68BC
:100CD000111D29601D0635D4590633D51188DD074D
:100CE00044BF43F02003236019B9236823F0200395
:100CF00023604FF0100EB0E758232D4884F845309C
:100D00002368E4E72368DEE77546E146B1FBF5F3C7
:100D10000A4605FB131A194610F80A30AA4209F8C8
:100D2000013DF3D2BEF1080FABD12368D907A8D596
:100D3000626823699A42A4DC302309F1FF3989F8FB
:100D400000309EE71168CAE713F0400F2B68626914
:100D500003F1040129601B6814BF1A801A6018E7A8
:100D600013F0400F2B6803F1040129600CBF1968D0
:100D700019886BE72A68B2F9001004322A600A4623
:100D800055E72D2284F843206268002AA26002DB26
:100D900023F0040323600A250548AE464942B4E720
:100DA000037804F1420984F8423067E760682EE76F
:100DB000485000085C50000820F0030110F00300C8
:100DC000C0F1000051F8043B00F1040C4FEACC0CD8
:100DD0006FF000021CBF22FA0CF213434FF0010C1B
:100DE0004CEA0C2C4CEA0C4CA3EB0C0222EA03025A
:100DF00012EACC1204BF51F8043B0430F4D0C2F123
:100E0000000102EA0102B2FA82F2C2F11F0200EB13
:100E1000D2007047000000002DE9F04F03690C6913
:100E200085B0A342C0F291808146013C01F11405D6
:100E300009F1140855F8243058F824C001339C45B2
:100E4000BCFBF3F64FEA840005EB840708EB840251
:100E500043D34FF0000CAA46CDE90105C6466346D0
:100E600065469346CDF80C805AF8040BDEF8002056
:100E70001FFA80FC06FB0C554FEA10484FEA154C50
:100E800006FB08CCADB290B2401B18441FFA8CF39D
:100E9000C3EB204303EB124380B240EA03405745C3
:100EA0004EF8040B4FEA1C454FEA2343DCD2DDE940
:100EB0000105DDF80C8058F8003073B9ABF104027D
:100EC000904504D307E0904504F1FF3403D252F873
:100ED0000439002BF7D0C9F81040484601F0A4FBB4
:100EE00000282EDB4146002255F8040BD1F800C043
:100EF0001FFA80FE1FFA8CF3A3EB0E031344020CBF
:100F0000C2EB234202EB1C429BB243EA0243AF42D4
:100F100041F8043B4FEA2242E6D258F8242008EB7D
:100F200084036AB9043B984504D307E0984504F16B
:100F3000FF3403D253F80429002AF7D0C9F810402F
:100F40000136304605B0BDE8F08F002005B0BDE8A1
:100F5000F08F00BF2DE9F04F16461F46456A9DB041
:100F6000CDE90467299C0290002D00F0AD8329682B
:100F700051B101236A6893404A608B6001F08EF89A
:100F80000022029B5B6A1A60B7F10009B4BF01231B
:100F900000232360764BBCBF29F00049CDF81490A4
:100FA00033EA090300F0AB80DDE90434184621463A
:100FB00000220023CDE9080103F0D4FC804668B18B
:100FC0000123289A13602A9B13B16A4B2A9A136053
:100FD000694B039303981DB0BDE8F08F1AAB0193E2
:100FE0001BAB00930298DDE9082301F071FC5FEA76
:100FF0001955834640F09980DDE91A85454405F28C
:101000003243202B40F39683C3F1400309FA03F9DE
:1010100005F2124326FA03F049EA000003F0C0F992
:101020000123013D0E93A1F1F8710022534B03F00F
:1010300079F849A3D3E9002303F02CFA48A3D3E9B4
:10104000002303F071F8064628460F4603F0B8F96E
:1010500045A3D3E9002303F01DFA02460B463046B0
:10106000394603F061F806460F4603F0C3FC002240
:10107000824600233046394603F07EFC002840F0CB
:101080003083BAF1160F00F21C83DDE908013C4FF2
:1010900007EBCA07D7E9002303F06EFC002875D0E0
:1010A00000230AF1FF3A1293A8EB05056B1E079384
:1010B00049BF00234FF00008C5F101080793BAF1BA
:1010C000000F6CDACAF100030D93269BA8EB0A0807
:1010D000092BCDF818A04FF0000A69D8052B40F372
:1010E00027830025043B2693269B023B032B00F21B
:1010F0007186DFE813F07E047B047204540442F22C
:101100000F73289AC9F3130959EA060913601CD111
:101110002A9B002B00F06E861A4B039308332A9A01
:10112000039813601DB0BDE8F08FDDE90812C2F32B
:101130001303084643F07F51CDF83880A5F2FF3500
:10114000DDF8688041F440116FE72A9B002B40F0E6
:1011500002840D4B03933DE761436F63A787D23F42
:10116000B3C8608B288AC63FFB799F501344D33F96
:101170000000F07F45500008445000080000F83F90
:10118000B84D0008705000087C500008A8EB050816
:10119000B8F10103079300F1B78480461290079BD2
:1011A0005344CDE906A300230D93269B092B95D923
:1011B000002326934FF0FF3301250C9300230A955B
:1011C00027930021029B5B6A59600C9B1393029842
:1011D00000F024FF0390002800F00586029B039A8C
:1011E0005B6A1A600C9B0E2B00F21181002D00F03F
:1011F0000E81069A002A40F35784B04F02F00F0385
:1012000007EBC3031511D205D3E900341E46274668
:1012100040F11784DDE90801A94B4FF00309D3E938
:10122000082303F061FACDE9100105F00F0585B13F
:1012300030463946A24CEB0705D5D4E9002309F125
:10124000010903F027F96D1004F10804F3D10646F3
:101250000F46DDE9100132463B4603F045FACDE981
:101260001001129B53B1DDE91045002220462946AA
:10127000944B03F081FB002840F02485484603F09E
:101280009FF8DDE9102303F005F98F4B002202F0EF
:101290004BFFA1F15073CDE9140115930C9B002B6A
:1012A00000F09C80069B17930C9B16930A9B002BC7
:1012B00000F09284169B814F002007EBC30757E98B
:1012C0000223824903F010FADDE9142302F02AFF19
:1012D000CDE91401DDE9100103F08CFB064603F0B3
:1012E0006FF802460B46DDE9100102F01BFF039D7B
:1012F00030360F4605F8016B0646DDE9140132462B
:101300003B4603F057FB002840F03385CDE9188AAF
:10131000CDF840B04FF00009DDE914ABDDF858809E
:101320002BE009F10109C14580F225855046594657
:101330000022674B03F0AEF80022654B82468B46D5
:101340003046394603F0A6F80F46064603F052FB36
:10135000044603F035F802460B463046394602F0A3
:10136000E1FE303452465B4605F8014B06460F4617
:1013700003F002FB002840F0FA8432463B4600208E
:10138000504902F0CFFE52465B4603F0F5FA0028C2
:10139000C7D0179BDDF840B0039A069302E0AA423B
:1013A00000F0C284AA4615F8013D392BF7D001336D
:1013B000DBB22B70069B013306936EE1484602F0C8
:1013C000FFFFDDE9102303F065F83F4B002202F038
:1013D000ABFEA1F15073CDE9140115930022DDE9B4
:1013E00010013C4B02F09EFEDDE9144522462B46DF
:1013F00006460F4603F0DEFA002840F0A684304689
:101400003946224605F1004303F0B6FA28BB1B9B80
:10141000002BC0F29380069A0E2A00F38F80274F8C
:10142000069B07EBC307D7E90034CDE90434279BBB
:10143000002B19DA0C9B002B16DC0ED1DDE9040120
:101440000022244B03F026F802460B46DDE9080192
:1014500003F09CFA002800F078844FF000094E4613
:10146000279B039FDD4339E2DDE90467DDE9089A44
:101470003B4632464846514603F036F903F0BAFA85
:10148000804602F09DFF3B46324603F003F80B46D0
:1014900002465146484602F045FE0C9F039D08F166
:1014A0003003012F05F8013B00F03783CDF81CB065
:1014B0004FF00109DDE904AB2E462BE0B84D0008E2
:1014C000A84E00080000F03F00001C400000E03F74
:1014D000000024400000144052465B462046294646
:1014E00003F002F903F086FA804602F069FF5246E3
:1014F0005B4602F0CFFF09F101090B46024629467F
:10150000204602F00FFE08F130034F4506F8013B7C
:1015100000F0008300228A4B02F0BCFF002200236F
:1015200004460D4603F01EFA0028D5D03546DDF8F6
:101530001CB0069BAA4601330693AEE00A9A002A25
:1015400040F0E380002345461E460D9F0A935DB19F
:10155000079A002A134607DDAA42A8BF2B46A8EB2C
:101560000308ED1AD31A07930D9B53B10A9B13B1CD
:10157000002F40F0058359460D9A029800F070FF45
:1015800083460121029800F0A3FE8146BAF1000FC4
:1015900040F0B181269B012B40F3E2810120079AA4
:1015A000104410F01F0000F0A980C0F12003042BAC
:1015B00040F3F081C0F11C000244804405440792CE
:1015C000B8F1000F05DD59464246029800F0B8FF19
:1015D0008346079B002B05DD49461A46029800F01A
:1015E000AFFF8146129B002B40F09B810C9B002B90
:1015F00040F357810A9B002B40F0B180069B0133DA
:1016000006930125039F0C9CDDF8088007E05946EE
:1016100000230A22404600F065FD83460135494615
:101620005846FFF7F9FBA54200F1300307F8013BEC
:10163000EDDB0C9A0025002ACCBF17460127039A40
:101640001744594601220298049300F079FF494655
:10165000834600F0E9FF002840F30782039A02E086
:10166000974200F00D8217F8013CBA46392B07F17A
:10167000FF37F5D001333B70029C4946204600F00D
:101680000DFD56B12DB1B54203D02946204600F0DC
:1016900005FD3146029800F001FD5946029800F020
:1016A000FDFC0023069A8AF80030289B1A602A9BCA
:1016B000002B3FF48FAC0398C3F800A01DB0BDE829
:1016C000F08F01231293EFE4102000F0D5FB029B72
:1016D0005862002800F09283C0E900558560C5601B
:1016E00052E4504602F06CFE32463B4603F03AF9B3
:1016F00000287FF4C6AC0AF1FF3AC2E41C23079A23
:1017000098441A441D4407925AE7269A012A40F346
:10171000BE810C9A0D9B571EBB42C0F27481002AF9
:10172000A3EB070780F218830C9BA8EB030575E178
:101730000125D9E4C3F1200306FA03F06EE400BFEB
:1017400000002440314600230A22029800F0CAFC1F
:10175000139B0646002B40F32C8306970C93002D19
:1017600000F34A81BAF1000F40F0F381B046039BC9
:101770000C9C1D46013B1C44049B089403F0010390
:10178000029C0A9349465846FFF746FB314682467B
:10179000584600F049FF424649460746204600F0B9
:1017A00063FFC26801460AF13003002A38D107906E
:1017B00058460C9300F038FF0246079920460792DE
:1017C00000F06CFC079A0C9B002A59D1269A1AB992
:1017D0000A9A002A00F0D582002F42DB2F46089A91
:1017E00007F8013BAA4200F0E481594600230A228F
:1017F000204600F077FC4645834631464FF0000313
:101800004FF00A02204635D000F06CFC41460646F7
:1018100000230A22204600F065FC3D468046B1E7E1
:101820000298079300F03AFC002F079B06DB049A0E
:10183000269902F001020F433A432CD15946012266
:101840000298049300F07CFE4946834600F0ECFECB
:101850000028049B40F3FD80392B00F06B820AF1D5
:101860003103AA46069A35460132464606920AF8E0
:10187000013B01E700F036FC3D460646804681E725
:10188000002FC0F2CC8226990F430A990F4300F033
:10189000C682002AA2DD392B00F04C82AA46013311
:1018A000E0E7269B022B7FF7A5AE0C9B002B7FF475
:1018B000D7AD49460522029800F014FC81465846EF
:1018C000494600F0B1FE00287FF7CAAD039F039B95
:1018D000069D01330393312301353B70494602983D
:1018E00000F0DCFB6B1CDDF80CA006930397002EC8
:1018F0007FF4CFAED1E601465246029800F0B0FD2B
:10190000269B8146012B40F38F804FF0000AD9F8C7
:10191000103009EB8303186900F08AFCC0F1200045
:101920003DE64946584600F07FFE0028BFF65EAE11
:10193000594600230A22029800F0D4FB069B8346F6
:101940005F1E0A9B002B7FF4FDAE139B002B40F320
:101950001F820C9355E69C4B03930333FFF7DFBBC9
:10196000049B002B7FF41AAEDDE90412C2F31303CB
:10197000002B7FF413AE954B13402BB1079B08F15E
:101980000108013307930123BAF1000F40F0E2810F
:101990009A4603E63FF414AEC0F13C03AFE60123E0
:1019A0000A93279B069A134413930133012B1F4676
:1019B000B8BF01270C93029B172F5E6A40F32B825E
:1019C000012204235B0003F11400B842114602F126
:1019D0000102F7D97160FFF7FABB01230A93279B35
:1019E000002B3DDD1F4613930C93E4E700230A937D
:1019F000D7E700230A93F2E731462A46029800F01F
:101A00009FFD0646AEE60D9B0D97FB1A00270C9A2C
:101A10009A44079B4546134407939044012102983A
:101A200000F056FC064692E5049B002B7FF46DAF58
:101A3000DDE90401C1F313030A46002B7FF465AF0F
:101A400099E7DDE908344FF00209CDE91034FFF7DA
:101A5000EEBB7FF406AFDC073FF5FEAEAA4601E71A
:101A6000012327930C93FFF7ACBB03D1049BD8074A
:101A70003FF5F4ADBA4617F8013D302BFAD0FBE53F
:101A8000069B039A0133069331231370F4E50E9AF3
:101A9000002A00F0948003F23343079A45461A4423
:101AA0000D9F07929844B9E700F03681DDE90801FF
:101AB000069B474F5D4205F00F0307EBC303D3E9D5
:101AC000002302F0E7FC2D11CDE9140100F07A812A
:101AD00000234FF002093F4EEF0706D5D6E9002359
:101AE00002F0D8FC012309F101096D1006F1080686
:101AF000F2D1CDE91001002B7FF4B3ABDDE9143452
:101B0000CDE91034FFF7ADBB0790C8F10108129082
:101B1000FFF745BB3546DDF81CB002460B4602F028
:101B200003FBDDE9049A4A46534606460F4602F097
:101B300041FF60B94A4653463046394602F012FF2B
:101B400000283FF4F6AC18F0010F3FF4F2AC039A12
:101B500028E40298716800F061FA0546002800F058
:101B60005381336906F10C0102339A000C3000F006
:101B7000DFF929460122029800F0E2FC8046F6E5F2
:101B8000029C31463A46204600F06AFC06465A4618
:101B90002046314600F0B2FB034620461C4659461B
:101BA00000F07CFA0D9BA346DB1B0D933FF4E9ACE0
:101BB000E1E4069A354601324646069241E51A9B13
:101BC000C3F1360369E700BF7C5000080000F07FD6
:101BD000B84D0008A84E0008169C9A4FDDE9142362
:101BE00007EBC40151E9020102F054FCCDE90E01FA
:101BF000DDE9100102F0FEFE054602F0E1FB0246BF
:101C00000B46DDE9100102F08DFADDF80C9030355D
:101C1000012CCDE90A0109F8015B00F0D180DDE972
:101C20000A01CDF84080B846169D039B1D44002252
:101C3000854B02F02FFC0F46064602F0DBFE044601
:101C400002F0BEFB303402460B463046394602F005
:101C500069FA09F8014B4D45E9D1CDE90A0147463A
:101C6000DDF840800022DDE90E01784B02F05CFADD
:101C700002460B46DDE90A0102F09CFE002871D104
:101C8000DDE90E230020714902F04CFA02460B46B2
:101C9000DDE90A0102F070FE48B91B9B002BFFF63C
:101CA00051AC069B0E2B3FF74DACFFF7B9BB15F8B7
:101CB000013CAA46302B05F1FF35F8D0179B0133C4
:101CC0000693EAE40C9B002B3FF478AB139B002BAC
:101CD0007FF79DAB1693069B2046013B29460022C9
:101CE0001793594B02F0D6FB02460D46144609F1F4
:101CF0000100CDE9104502F063FB22462B4602F0BD
:101D0000C9FB534B002202F00FFAA1F15073CDE949
:101D100014011593FFF7CABADDE908344FF0020940
:101D2000CDE91034FFF79DBA069B013306933123AA
:101D3000FFF73FBB069B2F460133069339233546F9
:101D4000039A464607F8013B8DE44FF00009039FD4
:101D50004E46BCE59A46DAE5079B45461344079391
:101D600090445BE6179B039A0693FFF71BBBDDF8D5
:101D700040B0AA46A2E7DDF840B0DDE9188AFFF7D7
:101D800046BB392BD6D0002F3FF769ADAA4669E58F
:101D9000269B022B09DC139B49460C93FFF73CF86A
:101DA000039A00F13003137043E4139B06970C93DE
:101DB0007BE5269B022BF8DC139B06970C93CEE465
:101DC0004D464FE7DDE914344FF00209CDE91034F8
:101DD000FFF747BA002502982946436A5D6000F084
:101DE0001DF9039000BB00224FF4D571194B1A481E
:101DF00000F04AFF194B0393FFF7ECB80246EA21C3
:101E0000174B154800F040FF024640F2EA21114B03
:101E1000114800F039FF00217160FFF7D8B9002A9E
:101E20003FF70CADAA461DE5029B03995B6A4FF094
:101E3000FF3219600123279513920A930C92FFF742
:101E4000E6BA00BFB84D0008000024400000E03FA3
:101E500000001C40CC50000898500008705000084A
:101E600080500008F030704700487047540100204F
:101E70000048704754010020024B0146186800F0EA
:101E800097BE00BF00000020024B0146186800F01A
:101E900031BE00BF000000205FFA81FC810744D002
:101EA0000346511E22B909E09A0709D0013905D32A
:101EB0001846027801336245F6D17047002070471A
:101EC000184603290CD80029F8D00346014401E044
:101ED0008B42F3D0184613F8012B6245F8D1ECE79A
:101EE00010B50CEB0C24024604EB044402E0043968
:101EF000032918D9104652F8043B6340A3F1013E70
:101F00002EEA030313F0803FF1D051B103460144A0
:101F100001E08B4205D0184613F8012B6245F8D139
:101F200010BD002010BD1046EFE71146C9E700BF05
:101F3000844641EA000313F0030349D1403A23D316
:101F40000B6803604B6843608B688360CB68C36039
:101F50000B6903614B6943618B698361CB69C36121
:101F60000B6A03624B6A43628B6A8362CB6AC36209
:101F70000B6B03634B6B43638B6B8363CB6BC363F1
:101F800040304031403ADBD230320BD30B68036033
:101F90004B6843608B688360CB68C360103010313E
:101FA000103AF3D20C3205D351F8043B40F8043B0D
:101FB000043AF9D2043208D0D2071CBF11F8013B11
:101FC00000F8013B01D30B8803806046704700BFD7
:101FD000082A13D38B07B1D010F00303AED0C3F19E
:101FE0000403D21ADB071CBF11F8013B00F8013BC8
:101FF000A4D331F8023B20F8023B9FE7043AD9D33F
:10200000013A11F8013B00F8013BF9D20B7803705B
:102010004B7843708B7883706046704770B5466A22
:1020200005460C465EB1F368A3B153F82400E8B14D
:10203000026843F824200023C360036170BD1020B0
:10204000FFF71AFF06466862E8B10023C0E90033D3
:102050008360C36021220421284600F03DFD6B6AA5
:10206000F060DB68002BE0D1002070BD0121284624
:1020700001FA04F56A1D920000F02EFD0028F3D04D
:10208000C0E90145D7E702466621024B024800F04D
:10209000FBFD00BF80500008E050000870B5466AA4
:1020A00005460C464EB13CB16B6A6268DB6853F87A
:1020B0002210216043F8224070BD1020FFF7DCFEA3
:1020C000686220B1C0E900668660C660EBE7024640
:1020D0008A21024B024800F0D7FD00BF8050000863
:1020E000E05000082DE9F0414FF0000E0E461C466E
:1020F0000D69074601F1140001680EF1010E8BB263
:1021000002FB0343090C4FEA134C02FB01CC9BB2C8
:1021100003EB0C43754540F8043B4FEA1C44EBDCF1
:102120003CB1B368AB4207DD06EB850301355C616A
:1021300035613046BDE8F081716838460131FFF7FE
:102140006DFF804690B1326906F10C0102329200B7
:102150000C30FFF7EDFE314646463846FFF79EFF4E
:1021600006EB850301355C613561E2E70246B52186
:10217000014B024800F088FDCC500008E0500008F8
:102180002DE9F8431E460C4626490833174681FBC5
:10219000032C092E4FEAE3730546C3EB6C0339DDCC
:1021A0004FF0010C00214FEA4C0C634501F1010195
:1021B000F9DC2846FFF732FF014668B3089B092F78
:1021C00043614FF00103036112DC09270A34BE4268
:1021D0000BDDF61B264414F8013B0A222846303B4F
:1021E000FFF780FFA6420146F5D10846BDE8F88317
:1021F00004F10909C8463C4418F8013B0A22284664
:10220000303BFFF76FFFA0450146F5D1A7F1080469
:102210004C44DCE70021CCE70246CE21024B0348C8
:1022200000F032FD398EE338CC500008E050000851
:10223000B0F5803F03463ABF102083400020B3F141
:10224000807F3CBF1B020830B3F1805F3CBF1B01A5
:102250000430B3F1804F03D3002B06DB013070470D
:102260009B0003D45B0003D42020704702307047EA
:10227000033070470368014613F0070209D0DA07FC
:1022800021D498074BBF5B089B08012002200B60FC
:10229000704798B2A0B11046DAB20AB908301B0AEA
:1022A0001A0704BF1B0904309A0704BF9B080230B9
:1022B000DA0703D45B0800F1010006D00B60704719
:1022C0001020C340E8E7002070472020704700BF7F
:1022D00010B50C460121FFF7A1FE024618B10123FB
:1022E000C0E9043410BD4FF4A071024B024800F065
:1022F000CBFC00BFCC500008E05000082DE9F04FA7
:10230000D1F8108015690E46A845924685B005DBC8
:102310002A46534645468A4690461E46DAF8083015
:10232000DAF8041005EB0804A342B8BF0131FFF747
:1023300075FE002800F0898000F1140707EB840E79
:10234000774505D23B46002243F8042B9E45FBD837
:10235000143606EB88080AF11409464509EB850591
:1023600066D2A5EB0A03153B23F003030AF1150A15
:10237000043355452CBF9B464FF0040BCDF808E0C5
:102380008246AE46039405E0090C2AD1B04507F118
:1023900004074AD956F8041B8DB2002DF4D0CC4660
:1023A0003C46002301965CF8040B216886B28AB291
:1023B00005FB0622000C090C05FB00111A4401EB79
:1023C000124192B242EA0142E64544F8042B4FEA38
:1023D0001143E8D8019E47F80B3056F8041C090C4D
:1023E000D4D000223B6848461D463C4694460288AD
:1023F0009BB201FB02C202EB154243EA024344F8DE
:10240000043B50F8043B25684FEA134CABB201FB88
:102410000C33864503EB12434FEA134CE7D8B04523
:1024200047F80B3007F10407B4D8DDE902E4504661
:10243000002C02DC05E0013C03D05EF8043D002BDB
:10244000F9D0046105B0BDE8F08F024640F25D119D
:10245000014B024800F018FCCC500008E050000886
:102460002DE9F04112F003031446074682B02DD146
:102470000E46A4101CD07A6A8AB39568002D39D014
:10248000E3074FF0000806D4641011D0286898B113
:102490000546E307F8D531462A463846FFF72EFFB2
:1024A0000346314638461E46FFF7F8FD6410EDD16D
:1024B000304602B0BDE8F0812A4629463846FFF78B
:1024C0001DFF28600546C0F80080E2E7184A013B7E
:1024D00052F823200023FFF705FE0646C9E7102027
:1024E000FFF7CAFC02467862E0B10023C0E900337E
:1024F0008360C360012138460192FFF78FFD019A86
:10250000054640B1012340F27121C0E904310023A6
:1025100090600360B4E702464FF4A071054B064893
:1025200000F0B2FB4FF4D771044B034800F0ACFB52
:10253000A84D0008CC500008E0500008805000086A
:102540002DE9F0470D462F69AB6807EB62177C1C3D
:102550009C429146064649684FEA621A04DD5B00D8
:102560009C4201F10101FADC3046FFF757FD80463D
:1025700000284ED0BAF1000F00F114000EDD034622
:1025800000210AF105024FEA820C08EB820243F8AF
:10259000041B9342FBD1ACF114031844296905F1E3
:1025A000140319F01F0903EB81012AD084464FF070
:1025B000000AC9F1200E1A6802FA09F242EA0A0278
:1025C0004CF8042B53F8042B994222FA0EFAF2D855
:1025D0004B1B153B23F00303043305F11502914215
:1025E00038BF042340F803A0BAF1000F00D13C46E5
:1025F00030462946C8F81040FFF750FD4046BDE878
:10260000F087043853F8042B994240F8042FF9D886
:10261000EDE7024640F2D911014B024800F034FBCD
:10262000CC500008E050000884460B690069C01ACD
:1026300015D10CF1140C14310CEB830210B401EB26
:10264000830301E0944508D252F8044D53F8041D69
:102650008C42F7D004D24FF0FF3010BC7047704767
:10266000012010BC704700BF2DE9F04F13690D69C0
:102670000C46ED1A002D904683B015D101F11407D8
:10268000143202EB830207EB830301E09F4276D210
:1026900053F8046D52F8041D8E42F7D006D223463B
:1026A00001254446984601E0F9DB00256168FFF703
:1026B000B5FC002875D000F114094F464FF0000C0E
:1026C0002669D8F8103004F1140B08F1140EC56017
:1026D00004F110010EEB830A0BEB8602CDF804B077
:1026E0005EF8044B51F8045F1FFA84FBABB2A3EB16
:1026F0000B03240C6344C4EB154404EB23449BB24A
:1027000043EA0443F24547F8043B4FEA244CE7D838
:10271000AAEB0805153DAD08691C08F115088900EC
:10272000C24538BF0421DDF804B00BEB0104A2421E
:1027300049442FD90F462546E04655F8043B1FFA79
:1027400083FCC4444FEA134E43440EEB2C4E9BB221
:1027500043EA0E43AA424FEA2E4C47F8043BEBD81B
:10276000013A121B22F00302114423B951F8043D2F
:10277000013E002BFAD0066103B0BDE8F08F0021C6
:10278000FFF74CFCA0B101220023C0E9042303B0F1
:10279000BDE8F08FAD00C24538BF002509EB05014B
:1027A000E3E702464FF41071054B064800F06CFA5F
:1027B000024640F23221024B024800F065FA00BFA7
:1027C000CC500008E0500008124B0A460B40A3F121
:1027D0005073002B03DD00221946104670475B4200
:1027E000B3F1A07F4FEA235106DA4FF40023002211
:1027F0000B4119461046704714391E29D4BF4FF0BB
:10280000004201224FF00003D8BFCA4010461946CB
:10281000704700BF0000F07F70B5046900F114023A
:1028200002EB840454F8046C251F3046FFF700FDCA
:102830000346C0F120000A2B08602FDDAA421BD2FC
:102840000B3B54F8085C23D0C3F1200E9E4025FAC0
:102850000EF146EA010CA4F108064CF07F51B24299
:1028600041F4401131D205FA03F354F80C5C25FA17
:102870000EF51D43284670BD0B3B08D0002506FA17
:1028800003F343F07F51284641F4401170BD1D46CB
:1028900046F07F5141F44011284670BDAA422CBF3A
:1028A000002554F8085CC3F10B0C03F1150326FA5C
:1028B0000CFE38BF25FA0CF506FA03F34EF07F51F3
:1028C0001D43284641F4401170BD9D40E4E700BF20
:1028D000F0B5012183B016461F46FFF79FFB054662
:1028E000002848D0C7F30A54C7F313030CB143F4CC
:1028F0008013002E019314D101A8FFF7BBFC012225
:10290000019B20306B612A6114B3089BA4F233440D
:1029100004441C60099BC0F135001860284603B0D0
:10292000F0BD68460096FFF7A5FC08B3019B00992F
:10293000C0F1200203FA02F2C34001930A43002BC4
:102940006A610CBF01220222AB612A61002CDCD13A
:1029500005EB8201A0F23243086908990B60FFF78A
:1029600067FC099BC0EB42101860284603B0F0BD1D
:10297000DDE90023E3E7024640F20A31014B024859
:1029800000F082F9CC500008E05000082DE9F04337
:1029900083B00E4669460746FFF73EFF04460D46E4
:1029A000304601A9FFF738FF33693A69D21ADDE9E9
:1029B00000369B1B03EB4213002B0BDD05EB035989
:1029C0004D4602460B462046294601F08DFE03B0D7
:1029D000BDE8F083C3EB033301EB03573946F0E75F
:1029E000172870B506460ADD002000240749084D67
:1029F00022462B4601F04EFD013EF9D170BD054B3C
:102A000003EBC003D3E9040170BD00BF0000F03F39
:102A100000002440A84D000801F1FF3C116902F1BB
:102A200014034FEA6C1C03EB81010CF1010C8B4287
:102A300000EB8C0C16D210B5A0F1040E53F8044B29
:102A400099424EF8044FF9D88B1A153B23F0030333
:102A500004331844844504D9002340F8043B8445DA
:102A6000FBD810BD844505D9002340F8043B8445BC
:102A7000FBD87047704700BF03694A11934200F1C9
:102A8000140009DA00EB830302E053F8042DBAB90D
:102A90008342FAD8002070470FDD11F01F010CD0DF
:102AA00010B450F8224000EB820324FA01F28A406D
:102AB00094420BD0012010BC704700EB8203E7E783
:102AC0000120704753F8042D002AF3D18342F9D82E
:102AD000002010BC704700BF38B502FB01F5294645
:102AE00000F066F8044618B12A460021FDF77CFB89
:102AF000204638BD002950D038B551F8043C0C1F91
:102B0000002BB8BFE418054600F026F9274A1368E1
:102B10002BB1A3420CD92168601883422CD02846DF
:102B200063601460BDE8384000F018B9A3420FD8C4
:102B30001A465B68002BF9D111685018844217D0EF
:102B40002CD3636054602846BDE8384000F006B9D5
:102B500011685018A04214D020D821686018834210
:102B6000EFD118685B680844C4E900035460EAE7E1
:102B700023680B441360E6E718685B68084420602C
:102B8000CDE720680144501883421160DBD1D3E9BE
:102B900000040144C2E90014D5E770470C2328461D
:102BA0002B60BDE8384000F0D9B800BFEC01002030
:102BB000F8B5CD1C25F0030508350C2D38BF0C25C4
:102BC000002D064615DBA94213D8254F00F0C4F8A6
:102BD0003A6892B1144603E0636822466BB11C4622
:102BE00023685B1BF8D40B2B29D923601C44256078
:102BF00018E00C2333600020F8BD796859B32946EA
:102C0000304600F02FF8431C01461ED0C41C24F0AF
:102C10000304A04205D03046611A00F023F80130C9
:102C200013D02560304600F099F804F10B00231D05
:102C300020F00700C21A1CBF1B1AA350F8BD63681E
:102C400094420CBF3B605360ECE70C23304633608A
:102C500000F084F8CFE7304600F004F87860CEE763
:102C6000EC010020002238B5064D044608462A60D3
:102C700001F03CFA431C00D038BD2B68002BFBD080
:102C8000236038BDF4010020144600B51A460A4BF3
:102C90000D461B6885B0DE6803464CB107490191BB
:102CA000304607490294009500F022F800F0E8FA57
:102CB00004490C46F3E700BF00000020145100084F
:102CC000245100082051000808B513460022FFF7E0
:102CD000DBFF00BF0CB400B583B004AB53F8042B8A
:102CE000019300F079F803B05DF804EB02B070478F
:102CF0000EB400B5074A82B003AB0146106853F822
:102D0000042B019300F068F802B05DF804EB03B007
:102D1000704700BF0000002010B4034CD4F8E4401A
:102D2000A44610BC604700BF6400002082B049B1D7
:102D30005AB16BB113780B601278101E18BF0120C6
:102D400002B0704701A9002AF3D1104602B07047C3
:102D50006FF00100F4E700BF704700BF704700BF8D
:102D60009368013B002B936005DAD2F818C06345E5
:102D700007DB0A2905D01368581C10600846197033
:102D8000704700F089B900BF9BB1F8B513440646FF
:102D90000F46541E5D1E01E0AC4208D03A46304654
:102DA00014F8011FFFF7DCFF431CF5D1F8BD00202C
:102DB000F8BD0020704700BF936810B514461BB9DA
:102DC00018460023636010BD00F062FC0023A3607E
:102DD0000023636010BD00BF2DE9F04FA1B089460C
:102DE00092461C46039018B18369002B00F0A68020
:102DF0009A4B994500F0A880994B994500F0B68010
:102E0000984B994504BF039BD3F80C90B9F80C304C
:102E1000180740F1A180D9F81030002B00F09C80F9
:102E20000023D04643F220020D9398F8003001268B
:102E3000DA468D4D0794ADF83920002B76D0474601
:102E400004E017F8013F002B00F09480252BF8D107
:102E5000B7EB080B40F091803B78002B66D0002345
:102E60004FF0FF320137CDE9092308930B938DF81A
:102E700063301E9304E0401B06FA00F003430893FE
:102E8000B8460522284617F8011BFFF705F8089BEE
:102E90000028F0D1D90644BF20228DF863201A07FC
:102EA00048BF2B2298F8001048BF8DF863202A29CC
:102EB0007AD1079A1168043200290792C0F2A980DA
:102EC0000B9198F8011008F101082E297ED0674F68
:102ED00003223846FEF7E0FF38B14022089BC01BB2
:102EE0008240134308F10108089318F8011B0622D9
:102EF0005F488DF83810FEF7CFFF002800F08F8074
:102F00005C4B002B77D007A900914A4603985A4B97
:102F100008A9FDF77DFA8246BAF1FF3F06D00D9B66
:102F200053440D9398F80030002B88D1B9F80C3039
:102F30005B0618D40D9821B0BDE8F08F00F088FB37
:102F4000464B99457FF458AF039BD3F80490B9F8EA
:102F50000C3018073FF55FAF4946039800F016F9AB
:102F600000283FF45DAF4FF0FF30E4E7039BD3F858
:102F700008904BE7B7EB080BD8D008F1FF34CDE948
:102F800004A72746039C01E0D3453BD9BA464A46ED
:102F9000204617F8011FFFF7E3FE0AF1020A01308D
:102FA000AAEB080AF0D1C1E7A1F13002092A8CD8B6
:102FB0000B9B18F8011F03EB830302EB4303A1F102
:102FC0003002092AF5D92E290B9380D198F80110E7
:102FD0002A292ED1079B08F102001A680433002A1F
:102FE0000793B8BF4FF0FF3398F80210099280465C
:102FF000B8BF09936BE7079B073323F00703083338
:1030000007938CE70D99DDE904A759443B780D91AE
:1030100023E7494243F002030B91089351E707A9C4
:1030200000914A460398144B08A9FDF771FD8246AA
:1030300072E70023A1F13002092A08F1010809937F
:103040003FF645AF18F8011F03EB830302EB430380
:10305000A1F13002092AF5D9099338E71450000884
:10306000F44F0008D44F0008645100086C51000868
:103070007051000811040008892D00088C4600B525
:1030800086461346034A714610685DF804EB6246B3
:10309000FFF7A2BE00000020F8B506460D46144614
:1030A00008B1836943B3254B9C422AD0244B9C42F0
:1030B00029D0244B9C4208BFF468A269A389A2606E
:1030C0001A0722D5236903B322686169D31AEDB2C6
:1030D00099422F4629DD0133A1680139A160511CB5
:1030E0002160157062699A4216D0A389DB0701D569
:1030F0000A2D11D03846F8BD00F0AAFA0F4B9C42B9
:10310000D4D17468D9E7B468D7E72146304600F0D7
:103110003DF838B92369D7E72146304600F03AF93F
:103120000028E7D04FF0FF37E4E72146304600F0B3
:1031300031F90028F6D101232268CDE714500008A8
:10314000F44F0008D44F000803460A4602490868B5
:103150001946FFF7A1BF00BF0000002010B4034CC8
:10316000D4F8E040A44610BC604700BF64000020D3
:10317000034649B1FF2A02D801200A7070478A220B
:103180004FF0FF301A60704708467047384B70B5F3
:103190001D6806460C460DB1AB69D3B1354B9C4258
:1031A0001DD0354B9C4248D0344B9C4208BFEC6844
:1031B000B4F90C30190717D52269FAB113F00101DF
:1031C0002BD000206169A0604942A1615AB3002060
:1031D00070BD284600F03CFA264B9C42E1D16C6859
:1031E000B4F90C301907E7D4DA063CD55D0726D4CC
:1031F000226943F00803A381002ADFD103F4207180
:10320000B1F5007FDAD02146304600F0F3FBB4F987
:103210000C30226913F00101D3D1980758BF6169BE
:10322000A160002AD3D1190658BF1046D0D543F06B
:1032300040034FF0FF30A38170BDAC68B8E7616B0D
:1032400051B104F14402914204D03046FFF752FCE0
:10325000B4F90C30002262630021226923F02403B8
:10326000C4E90021C5E7092243F040033260E0E7EA
:103270000000002014500008F44F0008D44F00084C
:10328000062008B500F07AFD012000F045FF00BFE0
:10329000F8B5B1F90C300C461E0707463CD44A6815
:1032A000002A56DDE56A002D34D000223E683A60DF
:1032B00013F4805259D101233846216AA847451C8E
:1032C00002465DD0B4F90C30E56A580705D563684D
:1032D000D21A636B0BB1236CD21A216A00233846D1
:1032E000A847411C43D13B68002B40D01D2B01D087
:1032F000162B32D100232269C4E90023616B3E60A2
:1033000041B104F14403994202D03846FFF7F2FB81
:10331000002363630020F8BD0E69002EFAD09B07DE
:1033200018BF00230D6808BF4B690E60AD1B8B6092
:103330000CE02B463246D4F828C03846216AE047D4
:10334000B0F1000CA5EB0C05664406DD002DF0DCA9
:10335000E0E70A6C002AA5DCDCE7B4F90C304FF09A
:10336000FF3043F04003A381F8BD626DADE700225A
:10337000236962602360A389DA04BFD56065BDE775
:103380003B68002B9ED01D2B01D0162BE5D13E6053
:10339000C0E700BF38B50B69BBB10C46054608B1A4
:1033A0008369B3B10D4B9C4211D00D4B9C4213D09D
:1033B0000C4B9C4208BFEC68B4F90C302BB1214691
:1033C0002846BDE83840FFF763BF002038BD6C6871
:1033D000F2E700F03DF9E5E7AC68EDE714500008CE
:1033E000F44F0008D44F000838B540B3184A0369B9
:1033F00004461568D3B10DB1AB69CBB1154B9C42F6
:103400000FD0154B9C4221D0144B9C4208BFEC6856
:10341000B4F90C3053B121462846BDE83840FFF7D7
:1034200037BF6C68B4F90C30002BF4D1002038BDE4
:10343000284600F00DF9074B9C42E2D1F1E7084B1A
:1034400008491868BDE8384000F0B0BAAC68DFE75A
:103450000000002014500008F44F0008D44F00086A
:10346000A04D00089533000800207047014900F086
:103470009DBA00BF9533000800207047682370B5DF
:103480004D1E03FB05F50E4605F17401FFF790FB99
:10349000044640B100210C30C4E9016005F1680226
:1034A0002160FCF7A1FE204670BD00BFF8B5254B9A
:1034B00006461F68BB693BB34837D7E90134013B77
:1034C00004D51DE05A1C04F1680419D0B4F90C505D
:1034D000013B002DF6D11C4B08222946C4E90155B9
:1034E000C4E90455E36065662560A56104F15C00EC
:1034F000FCF77AFEC4E90D55C4E912552046F8BD23
:103500003D682DB12F46D8E7384600F01FF8D3E7C5
:103510004FF4D6713046FFF74BFB044668B10423E5
:103520000560294605460C304FF4D072A0606360F8
:10353000FCF75AFE3C602F46BFE70C23386033602F
:10354000DCE700BFA04D00080100FFFF0023334A65
:103550002DE9F0471268C0E912339042036508BFB5
:1035600001232F4908BF836181620546FFF79EFF53
:10357000034628466B60FFF799FFA86028460024A1
:10358000FFF794FF04236E68DFF898A0DFF89890A7
:10359000DFF89880264FE8600822F3602146C6E9EC
:1035A0000044C6E90444B4607466B46106F15C008A
:1035B000FCF71AFE1F4BC6E9086AC6E90A9837638A
:1035C000AE680822F3602146C6E90044C6E9044417
:1035D000B4607466B46106F15C00FCF705FE164B3E
:1035E000C6E9086AC6E90A983763EE682146F360BF
:1035F0000822C6E90044C6E90444B4607466B461B4
:1036000006F15C00FCF7F0FD0123C6E9086AC6E993
:103610000B87C6F82890AB61BDE8F087A04D000885
:103620006D340008E13E0008093F0008493F0008EA
:103630006D3F00080900010012000200024B03491F
:10364000186800F0B3B900BFA04D0008953300081A
:10365000836903B97AE77047704700BF704700BFBE
:10366000704700BF704700BF024B0349186800F065
:103670007DB900BF0000002069340008024B0349F7
:10368000186800F073B900BF00000020793400080A
:103690009368002B00F0B2802DE9F04F8046B1F91D
:1036A0000C00174602070C4683B025D50B691BB3E7
:1036B00010F002033D682BD04FF0000B5E46DFF8A0
:1036C000A8A2002E00F08780564533465A4628BFF0
:1036D00053464046216AD4F828C0E047002840F30A
:1036E0008380BB6883441B1A361ABB60002BE8D169
:1036F000002003B0BDE8F08F21464046FFF746FDAD
:10370000002876D1B4F90C003D6810F00203D3D143
:1037100010F0010974D14E46002E58D08305D4F81C
:1037200008B040F1B080B3455A4600F2C88010F4AA
:10373000906F00F0C68022682369A2EB030A6269D9
:103740000AF1010102EB420202EBD2723144521043
:10375000914292BF93468B460A46410540F1E6806E
:1037600011464046FFF724FA002800F0F680524642
:1037700021690190FEF7DCFBA289019B22F4906293
:1037800042F08002A28103EB0A002361C4F814B066
:10379000ABEB0A033246B346A3602060B246002674
:1037A0004946019200F0AEF9A368019AA3EB0B0120
:1037B0002368A16013442360BB68D144A3EB0A03D0
:1037C000BB60002B94D0B4F90C00002EA6D1D5E933
:1037D00000960835A0E7D5E900B6083571E721461F
:1037E0004046FFF7D7FD78B3B4F90C3043F04003FF
:1037F000A3814FF0FF3003B0BDE8F08F0020704789
:103800001E46BA46994618461F465EB380B34A46DE
:10381000D4E904C32068B24228BF32466045A1689B
:1038200003D901EB030B5A4572DC934263DC3A4641
:103830004046216AD4F828C0E047B0F1000BD3DD40
:10384000B9EB0B09CBD00120DAF808305F44A3EBC9
:103850000B03A6EB0B06CAF80830002B3FF448AF69
:10386000002ED3D16E682B460835002EFAD01F6883
:1038700032460A213846FEF70FFB00286AD0013095
:10388000A0EB0709C3E72068236998421BD8636946
:10389000B34218D86FF0004CB44528BFB4469CFB27
:1038A000F3FC4A4603FB0CF34046216AD4F828C0D7
:1038B000E047B0F1000A97DDA6EB0A067CE7B346C5
:1038C000324620686AE7B345DA4628BFB246494621
:1038D000524600F017F9A3682268A3EB0A0352448A
:1038E000A3602260002BE7D121464046FFF752FD3E
:1038F0000028E1D078E739469346019200F002F9BA
:10390000A368019A9B1AA36023681344236097E776
:1039100039465A4600F0F6F8236821465B44404693
:103920002360FFF737FD00288AD05DE7194640463F
:1039300000F066F9034600287FF425AF4046216970
:10394000FFF7D8F80C22B4F90C30C8F8002023F0A7
:1039500080034BE7721C91465AE70C22B4F90C30F5
:10396000C8F8002042E700BF00FCFF7F2DE9F041CE
:103970000026884600F14807D7E90154013D0ED4DE
:10398000A389013D012B06D9B4F90E30013302D0D1
:103990002046C04706436B1C04F16804F0D13F6821
:1039A000002FE9D13046BDE8F08100BF2DE9F84392
:1039B0004FF000090746884600F14806D6E9015451
:1039C000013D10D4A389013D012B08D9B4F90E3073
:1039D000013304D021463846C04749EA00096B1C30
:1039E00004F16804EED13668002EE7D14846BDE800
:1039F000F88300BFF0B5B1F90C300C46990797B0C9
:103A000007D5012204F14703C4E90432236017B04B
:103A1000F0BDB4F90E10054600292EDB6A4600F011
:103A2000D1FA002827DB019E4FF4806706F4704628
:103A3000A6F50056B6FA86F6394628467609FFF707
:103A4000B7F838B3A3891B4A43F08003AA62C4E9DC
:103A50000407A3812060002ED9D02846B4F90E10A7
:103A600000F0C4FA0028D2D0A38923F0030343F066
:103A70000103A381CBE7B4F90C3013F0800F0CBF26
:103A80004FF480674027284639460026FFF790F814
:103A90000028D7D1B4F90C309A05B8D4012123F00D
:103AA000030304F1470243F00203C4E90421A381A4
:103AB0002260ACE76D34000870B50C46B1F90E1009
:103AC000154600291E4696B00FDB6A4600F07AFACA
:103AD00000280ADB019B4FF4806203F47043A3F5D6
:103AE0000053B3FA83F35B0907E0A289002312F0C5
:103AF000800F14BF40224FF48062002033602A60A0
:103B000016B070BD88420ED98B1883420BD900EBDA
:103B1000020C002A6DD0624613F801CD994202F8DA
:103B200001CDF9D170470F2A0FD8034602F1FF3CAF
:103B3000002A5ED00CF1010C013B8C4411F8012BE2
:103B4000614503F8012FF9D1704740EA01039B0753
:103B500050D1A2F1100370B501F1200C23F00F0534
:103B600001F1100E00F11004AC441B095EF8105C6A
:103B70000EF1100E44F8105C5EF81C5C103444F832
:103B80001C5C5EF8185C44F8185C5EF8145CE64552
:103B900044F8145CEAD1013312F00C0F01EB03116D
:103BA00002F00F0400EB031328D08E46043C24F0EF
:103BB00003064FEA940C1E441C1F5EF8045B44F895
:103BC000045FB442F9D10CF1010402F0030203EBEB
:103BD000840301EB840102F1FF3C4AB10CF1010CBA
:103BE000013B8C4411F8012B614503F8012FF9D1F9
:103BF00070BD7047034602F1FF3C9BE72246EAE7AF
:103C0000F8B51446F1B1C2B106460D4600F016FAF9
:103C1000A04202D32F463846F8BD21463046FEF773
:103C2000C7FF074658B122462946FEF781F93046BC
:103C30002946FEF75FFF3846F8BDFEF75BFF002719
:103C40003846F8BD1146BDE8F840FEF7B1BF00BFE9
:103C500038B5446C0CB1002038BD80210546FEF714
:103C6000A7FF0246686430B1031F7C3243F8044F5B
:103C70009342FBD1EFE74FF0FF3038BD30B51F293D
:103C8000054683B008D8436C0C4653B153F8240062
:103C900043F8242003B030BD162303604FF0FF30FB
:103CA000F8E780210192FEF783FF019A03466864DA
:103CB0000028F3D0011F00F17C05002041F8040F1B
:103CC000A942FBD1E2E700BF1F2938B505461ED83F
:103CD000426C0C466AB152F8213053B1012B06D028
:103CE000591C10D00021204642F82410984700208B
:103CF00038BD284600F0F2F8224601462846BDE8C5
:103D0000384000F0D7B8162301202B6038BD1623A9
:103D10004FF0FF302B6038BD1F292BD838B5436CCE
:103D20000C460546A3B153F8242003EB84034AB1A3
:103D3000511C0BD0012A07D0002520461D6090475A
:103D4000284638BD012038BD032038BD022038BDCB
:103D50008021FEF72DFF0346686440B100201A1F42
:103D600003F17C0142F8040F9142FBD1DBE74FF0F5
:103D7000FF3038BD4FF0FF30704700BF38B5134BF0
:103D80001F281D681DD86A6C044662B152F82030A5
:103D90004BB1012B05D0591C0FD0002142F8201047
:103DA0009847002038BD284600F098F82246014682
:103DB0002846BDE8384000F07DB8162301202B606E
:103DC00038BD16234FF0FF302B6038BD00000020B7
:103DD000114B1F2870B51E6808D8736C04460D4639
:103DE0004BB153F8240043F8245070BD16233360C0
:103DF0004FF0FF3070BD80213046FEF7D9FE0346FC
:103E000070640028F4D00021021F7C3042F8041FA7
:103E10009042FBD1E5E700BF0000002038B50B4B16
:103E20001D686C6C0CB1002038BD80212846FEF75F
:103E3000BFFE686438B1031F00F17C0243F8044FF1
:103E40009342FBD1EFE74FF0FF3038BD0000002078
:103E500038B5174B1F281D6826D80446686CA0B1DA
:103E600050F8242000EB84034AB1511C0BD0012AE6
:103E700007D0002520461D609047284638BD012008
:103E800038BD032038BD022038BD80212846FEF70A
:103E90008FFE686440B10021031F00F17C0243F8EB
:103EA000041F9A42FBD1DBE74FF0FF3038BD00BF63
:103EB0000000002070B50026074D04460846114654
:103EC0002E6000F0FBF8431C00D070BD2B68002B67
:103ED000FBD0236070BD00BFF401002000F0DEB80D
:103EE00010B50C46B1F90E1000F0B2F8002803DB53
:103EF000636D0344636510BDA38923F48053A381DC
:103F000010BD00BF002070472DE9F0410C46B1F90B
:103F10000C101F46CB05054616460BD421F48051E4
:103F2000A1813B4632462846B4F90E10BDE8F04167
:103F300000F020B8B4F90E100223002200F068F857
:103F4000B4F90C10EAE700BF10B50C46B1F90E1039
:103F500000F05EF8B4F90C30421C0EBF23F480531D
:103F600043F480536065A38110BD00BFB1F90E100A
:103F700000F016B838B50C46114600228446074DAD
:103F800020462A601A46644600F0BEF8431C00D062
:103F900038BD2B68002BFBD0236038BDF401002016
:103FA000002238B5064D044608462A6000F066F83F
:103FB000431C00D038BD2B68002BFBD0236038BDDC
:103FC000F401002070B50026074D0446084611464E
:103FD0002E6000F05BF8431C00D070BD2B68002BF6
:103FE000FBD0236070BD00BFF4010020002238B573
:103FF000064D044608462A6000F058F8431C00D0DD
:1040000038BD2B68002BFBD0236038BDF4010020A5
:1040100038B50C46114600228446074D20462A60DA
:104020001A46644600F052F8431C00D038BD2B6895
:10403000002BFBD0236038BDF401002051F8040CA4
:104040000028A0F10400BCBF0B58C018704700BF87
:1040500038B50C46114600228446074D20462A609A
:104060001A46644600F03AF8431C00D038BD2B686D
:10407000002BFBD0236038BDF40100205822024BF6
:104080004FF0FF301A607047F40100205822024BB5
:104090004FF0FF301A607047F40100205822024BA5
:1040A0004FF0FF301A607047F40100205822024B95
:1040B00000201A60704700BFF40100205822024B14
:1040C0004FF0FF301A607047F40100205822024B75
:1040D0004FF0FF301A607047F40100205822024B65
:1040E0004FF0FF301A607047F4010020044A054980
:1040F0001368002B08BF0B46184410601846704721
:10410000F8010020000200205822024B4FF0FF303F
:104110001A607047F4010020FEE700BF81F0004103
:1041200002E000BF83F0004330B54FEA41044FEA9C
:10413000430594EA050F08BF90EA020F1FBF54EA37
:10414000000C55EA020C7FEA645C7FEA655C00F0D3
:10415000E2804FEA5454D4EB5555B8BF6D420CDDA4
:104160002C4480EA020281EA030382EA000083EA27
:10417000010180EA020281EA0303362D88BF30BDC7
:1041800011F0004F4FEA01314FF4801C4CEA11311D
:1041900002D0404261EB410113F0004F4FEA03337C
:1041A0004CEA133302D0524263EB430394EA050F07
:1041B00000F0A780A4F10104D5F1200E0DDB02FA76
:1041C0000EFC22FA05F2801841F1000103FA0EF20A
:1041D000801843FA05F359410EE0A5F120050EF1D0
:1041E000200E012A03FA0EFC28BF4CF0020C43FA01
:1041F00005F3C01851EBE37101F0004507D54FF00E
:10420000000EDCF1000C7EEB00006EEB0101B1F55D
:10421000801F1BD3B1F5001F0CD349085FEA3000A3
:104220004FEA3C0C04F101044FEA445212F5800FAE
:1042300080F09A80BCF1004F08BF5FEA500C50F14B
:10424000000041EB045141EA050130BD5FEA4C0C2E
:10425000404141EB0101013C28BFB1F5801FE9D28B
:1042600091F0000F04BF01460020B1FA81F308BFAE
:104270002033A3F10B03B3F120020CDA0C3208DD7A
:1042800002F1140CC2F10C0201FA0CF021FA02F155
:104290000CE002F11402D8BFC2F1200C01FA02F1C5
:1042A00020FA0CFCDCBF41EA0C019040E41AA2BFEA
:1042B00001EB0451294330BD6FEA04041F3C1CDAB2
:1042C0000C340EDC04F11404C4F1200220FA04F0D2
:1042D00001FA02F340EA030021FA04F345EA03017C
:1042E00030BDC4F10C04C4F1200220FA02F001FA3E
:1042F00004F340EA0300294630BD21FA04F02946C0
:1043000030BD94F0000F83F4801306BF81F4801158
:104310000134013D4EE77FEA645C18BF7FEA655CCB
:1043200029D094EA050F08BF90EA020F05D054EA9D
:10433000000C04BF1946104630BD91EA030F1EBFA2
:104340000021002030BD5FEA545C05D140004941A6
:1043500028BF41F0004130BD14F580043CBF01F599
:10436000801130BD01F0004545F0FE4141F470017F
:104370004FF0000030BD7FEA645C1ABF194610465A
:104380007FEA655C1CBF0B46024650EA013406BF5B
:1043900052EA033591EA030F41F4002130BD00BF1A
:1043A00090F0000F04BF0021704730B54FF48064D7
:1043B00004F132044FF000054FF0000150E700BF58
:1043C00090F0000F04BF0021704730B54FF48064B7
:1043D00004F1320410F0004548BF40424FF00001A4
:1043E0003EE700BF42004FEAE2014FEA31014FEAE7
:1043F00002701FBF12F07F4393F07F4F81F0605136
:10440000704732F07F4208BF704793F07F4F04BF80
:1044100041F40021704730B54FF4607401F000455D
:1044200021F000411CE700BF50EA010208BF7047BD
:1044300030B54FF000050AE050EA010208BF7047AE
:1044400030B511F0004502D5404261EB41014FF417
:10445000806404F132045FEA915C3FF4D8AE4FF01F
:1044600003025FEADC0C18BF03325FEADC0C18BF02
:10447000033202EBDC02C2F1200300FA03FC20FA53
:1044800002F001FA03FE40EA0E0021FA02F11444A0
:10449000BDE600BF70B54FF0FF0C4CF4E06C1CEAB9
:1044A00011541DBF1CEA135594EA0C0F95EA0C0F2A
:1044B00000F0DEF82C4481EA030621EA4C5123EA9D
:1044C0004C5350EA013518BF52EA033541F48011CC
:1044D00043F4801338D0A0FB02CE4FF00005E1FB7F
:1044E00002E506F00042E0FB03E54FF00006E1FBC9
:1044F00003569CF0000F18BF4EF0010EA4F1FF040C
:10450000B6F5007F64F5407404D25FEA4E0E6D414B
:1045100046EB060642EAC62141EA55514FEAC5205C
:1045200040EA5E504FEACE2EB4F1FD0C88BFBCF5D8
:10453000E06F1ED8BEF1004F08BF5FEA500E50F189
:10454000000041EB045170BD06F0004646EA01014F
:1045500040EA020081EA0301B4EB5C04C2BFD4EB81
:104560000C0541EA045170BD41F480114FF0000E7A
:10457000013C00F3AB8014F1360FDEBF002001F0E8
:10458000004170BDC4F10004203C35DA0C341BDC62
:1045900004F11404C4F1200500FA05F320FA04F034
:1045A00001FA05F240EA020001F0004221F0004168
:1045B00010EBD37021FA04F642EB06015EEA430EDB
:1045C00008BF20EAD37070BDC4F10C04C4F120050B
:1045D00000FA04F320FA05F001FA04F240EA0200BE
:1045E00001F0004110EBD37041F100015EEA430E8F
:1045F00008BF20EAD37070BDC4F1200500FA05F2AF
:104600004EEA020E20FA04F301FA05F243EA02032D
:1046100021FA04F001F0004121FA04F220EA02003C
:1046200000EBD3705EEA430E08BF20EAD37070BD82
:1046300094F0000F0FD101F00046400041EB010162
:1046400011F4801F08BF013CF7D041EA060195F044
:10465000000F18BF704703F00046520043EB0303FE
:1046600013F4801F08BF013DF7D043EA06037047EB
:1046700094EA0C0F0CEA135518BF95EA0C0F0CD0F6
:1046800050EA410618BF52EA4306D1D181EA03013C
:1046900001F000414FF0000070BD50EA410606BF36
:1046A0001046194652EA430619D094EA0C0F02D17B
:1046B00050EA013613D195EA0C0F05D152EA0336C0
:1046C0001CBF104619460AD181EA030101F00041DE
:1046D00041F0FE4141F470014FF0000070BD41F027
:1046E000FE4141F4780170BD70B54FF0FF0C4CF401
:1046F000E06C1CEA11541DBF1CEA135594EA0C0F20
:1047000095EA0C0F00F0A7F8A4EB050481EA030E6C
:1047100052EA03354FEA013100F088804FEA033353
:104720004FF0805545EA131343EA12634FEA022221
:1047300045EA111545EA10654FEA00260EF00041E2
:104740009D4208BF964244F1FD0404F5407402D234
:104750005B084FEA3202B61A65EB03055B084FEAC5
:1047600032024FF480104FF4002CB6EB020E75EBC2
:10477000030E22BFB61A754640EA0C005B084FEAEA
:104780003202B6EB020E75EB030E22BFB61A754667
:1047900040EA5C005B084FEA3202B6EB020E75EBB2
:1047A000030E22BFB61A754640EA9C005B084FEA2A
:1047B0003202B6EB020E75EB030E22BFB61A754637
:1047C00040EADC0055EA060E18D04FEA051545EA26
:1047D00016754FEA06164FEAC30343EA52734FEACF
:1047E000C2025FEA1C1CC0D111F4801F0BD141EA48
:1047F00000014FF000004FF0004CB6E711F4801FAD
:1048000004BF01430020B4F1FD0C88BFBCF5E06F8C
:104810003FF6AFAEB5EB030C04BFB6EB020C5FEA9C
:10482000500C50F1000041EB045170BD0EF0004EF1
:104830004EEA113114EB5C04C2BFD4EB0C0541EA23
:10484000045170BD41F480114FF0000E013C90E620
:1048500045EA060E8DE60CEA135594EA0C0F08BFE4
:1048600095EA0C0F3FF43BAF94EA0C0F0AD150EAE3
:1048700001347FF434AF95EA0C0F7FF425AF104676
:1048800019462CE795EA0C0F06D152EA03353FF49E
:10489000FDAE1046194622E750EA410618BF52EA1B
:1048A00043067FF4C5AE50EA41047FF40DAF52EAEF
:1048B00043057FF4EBAE12E74FF0FF3C06E000BF8C
:1048C0004FF0010C02E000BF4FF0010C4DF804CD99
:1048D0004FEA410C7FEA6C5C4FEA430C18BF7FEA59
:1048E0006C5C1BD001B050EA410C0CBF52EA430C87
:1048F00091EA030F02BF90EA020F0020704710F107
:10490000000F91EA030F58BF994208BF90422CBF95
:10491000D8176FEAE37040F0010070474FEA410C8E
:104920007FEA6C5C02D150EA013C07D14FEA430CAC
:104930007FEA6C5CD6D152EA033CD3D05DF8040B1D
:10494000704700BF8446104662468C46194663464F
:1049500000E000BF01B5FFF7B7FF002848BF10F126
:10496000000F01BD4DF808EDFFF7F4FF0CBF01206B
:1049700000205DF808FB00BF4DF808EDFFF7EAFFE7
:1049800034BF012000205DF808FB00BF4DF808EDA2
:10499000FFF7E0FF94BF012000205DF808FB00BF97
:1049A0004DF808EDFFF7CEFF94BF012000205DF821
:1049B00008FB00BF4DF808EDFFF7C4FF34BF01202E
:1049C00000205DF808FB00BF4FEA410C7FEA6C5CF9
:1049D00002D150EA013C0AD14FEA430C7FEA6C5CF9
:1049E00002D152EA033C02D14FF0000070474FF071
:1049F000010070474FEA410212F5001215D211D59D
:104A00006FF47873B3EB625212D94FEAC12343F0CB
:104A1000004343EA505311F0004F23FA02F018BF4D
:104A2000404270474FF00000704750EA013005D116
:104A300011F0004008BF6FF0004070474FF00000D9
:104A4000704700BF30B5CB7803F00F02964613F0E5
:104A5000100F03D091F802E04EEA020E0B78FBB182
:104A60000568002301E042610133072B17D80122BA
:104A70009A40B1F800C032EA0C0CF5D19C004FF01E
:104A80000F0C0CFA04FC25EA0C050EFA04F425437D
:104A9000CC78282CE7D0482CE6D10261E4E7056009
:104AA0000B88FF2B25D94568002303E0CC78482CE0
:104AB0001CD00133072B1BD803F1080C012202FA8A
:104AC0000CF2B1F800C032EA0C0CF2D19C004FF0AD
:104AD0000F0C0CFA04FC25EA0C0C0EFA04F444EA60
:104AE0000C05CC78282CE1D14261DFE70261E0E7D8
:104AF000456030BD01617047416170470AB1016195
:104B0000704741617047000021B1054A9369034332
:104B100093617047024A936923EA000393617047E7
:104B20000010024000EBC000C0004FF0E0235861CD
:104B300000229A6105221A614FF0E0231B6913F4E9
:104B4000803FF9D04FF0E02304221A61704710B57E
:104B500004E04FF47A70FFF7E5FF2046441E00287A
:104B6000F7D110BD82B00023019300932D4A136842
:104B700043F4803313602B4B1B6803F40033009322
:104B8000019B01330193009B23B9019A41F28833C1
:104B90009A42F0D1234B1B6813F4003F06D0012347
:104BA0000093009B012B04D002B0704700230093B8
:104BB000F7E71D4B1A6842F010021A601A6822F0DB
:104BC00007021A601A6842F002021A60A3F58053C5
:104BD0005A685A605A685A605A6842F480625A6049
:104BE0005A6822F47C125A605A6842F4E8125A60F9
:104BF0001A6842F080721A600A4B1B6813F0007F3B
:104C0000FAD0084B5A6822F003025A605A6842F000
:104C100002025A60034B5B6803F00C03082BF9D1C6
:104C2000C2E700BF001002400020024008B5FFF7B5
:104C300099FF08BD08B5104B1A6842F001021A60CE
:104C400059680E4A0A405A601A6822F0847222F4A7
:104C500080321A601A6822F480221A605A6822F49C
:104C6000FE025A604FF41F029A60FFF7DFFF044B09
:104C70004FF000629A6008BD001002400000FFF88B
:104C800000ED00E000B583B001211020FFF73CFFEC
:104C900010238DF807304FF40053ADF80430022391
:104CA0008DF8063001A91F48FFF7CCFE1D4C4FF4CC
:104CB00000512046FFF720FF4FF4FA70FFF747FF3F
:104CC0004FF400512046FFF715FF4FF4FA70FFF73D
:104CD0003EFF00224FF400512046FFF70FFF4FF434
:104CE000FA70FFF734FF01224FF400512046FFF71E
:104CF00005FF4FF4FA70FFF72AFF00224FF400512E
:104D00002046FFF7FBFE4FF4FA70FFF720FF012269
:104D10004FF400512046FFF7F1FE4FF4FA70FFF711
:104D200016FFC3E7001001407047FEE7FEE7FEE70D
:104D3000FEE770477047704770470000002103E0AE
:104D40000B4B5B58435004310A480B4B42189A42B4
:104D5000F6D30A4A02E0002342F8043B084B9A4289
:104D6000F9D3FFF767FFFBF717FAFFF78BFF7047E1
:104D70008051000800000020D0010020D001002058
:104D8000FC010020FEE70000F8B500BFF8BC08BC3D
:104D90009E467047F8B500BFF8BC08BC9E467047F9
:104DA00004000020000000000500000019000000C1
:104DB0007D00000000000000000000000000F03F47
:104DC00000000000000024400000000000005940E6
:104DD0000000000000408F40000000000088C34039
:104DE00000000000006AF8400000000080842E41AE
:104DF00000000000D01263410000000084D79741FA
:104E00000000000065CDCD41000000205FA00242FF
:104E1000000000E876483742000000A2941A6D4274
:104E2000000040E59C30A2420000901EC4BCD64267
:104E300000003426F56B0C430080E03779C3414312
:104E400000A0D8855734764300C84E676DC1AB4388
:104E5000003D9160E458E143408CB5781DAF1544A6
:104E600050EFE2D6E41A4B4492D54D06CFF0804481
:104E7000F64AE1C7022DB544B49DD9794378EA4496
:104E8000BC89D897B2D29C3C33A7A8D523F6493920
:104E90003DA7F444FD0FA5329D978CCF08BA5B2542
:104EA000436FAC642806C80A0080E03779C34143E9
:104EB000176E05B5B5B89346F5F93FE9034F384D80
:104EC000321D30F94877825A3CBF737FDD4F15752C
:104ED00000202020202020202020282828282820CA
:104EE00020202020202020202020202020202020C2
:104EF000208810101010101010101010101010102A
:104F00001004040404040404040404101010101019
:104F100010104141414141410101010101010101E3
:104F20000101010101010101010101011010101035
:104F300010104242424242420202020202020202B5
:104F40000202020202020202020202021010101009
:104F50002000000000000000000000000000000031
:104F60000000000000000000000000000000000041
:104F70000000000000000000000000000000000031
:104F80000000000000000000000000000000000021
:104F90000000000000000000000000000000000011
:104FA0000000000000000000000000000000000001
:104FB00000000000000000000000000000000000F1
:104FC00000000000000000000000000000000000E1
:104FD00000000000000000000000000000000000D1
:104FE00000000000000000000000000000000000C1
:104FF00000000000000000000000000000000000B1
:1050000000000000000000000000000000000000A0
:105010000000000000000000000000000000000090
:105020000000000000000000000000000000000080
:1050300000000000494E4600696E66004E414E0079
:105040006E616E0030000000303132333435363757
:105050003839414243444546000000003031323384
:1050600034353637383961626364656600000000A4
:10507000496E66696E697479000000004E614E00E9
:105080005245454E54206D616C6C6F63207375639F
:1050900063656564656400002E2E2F2E2E2F2E2E44
:1050A0002F2E2E2F2E2E2F2E2E2F2E2E2F2E2E2F1A
:1050B0006E65776C69622F6C6962632F7374646CC0
:1050C00069622F64746F612E6300000042616C6C32
:1050D0006F63207375636365656465640000000039
:1050E0002E2E2F2E2E2F2E2E2F2E2E2F2E2E2F2EDB
:1050F0002E2F2E2E2F2E2E2F6E65776C69622F6C21
:105100006962632F7374646C69622F6D707265637A
:105110002E6300002C2066756E6374696F6E3A20F2
:1051200000000000617373657274696F6E20222540
:105130007322206661696C65643A2066696C65203B
:10514000222573222C206C696E6520256425732529
:10515000730A000043000000504F534958000000FC
:105160002E000000232D302B20000000686C4C0026
:08517000656667454647000033
:0451780079010008B1
:04517C0051010008D5
:10518000040000200000000014500008F44F000844
:10519000D44F0008000000000000000000000000E4
:1051A00000000000000000000000000000000000FF
:1051B00000000000000000000000000000000000EF
:1051C00000000000000000000000000000000000DF
:1051D00000000000000000000000000000000000CF
:1051E000000000004300000000000000000000007C
:1051F00000000000000000000000000000000000AF
:10520000000000004300000000000000000000005B
:10521000000000000000000000000000000000008E
:10522000000000004300000000000000000000003B
:10523000000000000000000000000000000000006E
:10524000000000004300000000000000000000001B
:10525000000000000000000000000000000000004E
:1052600000000000430000000000000000000000FB
:10527000000000000000000000000000000000002E
:1052800000000000430000000000000000000000DB
:10529000000000000000000000000000000000000E
:1052A00000000000430000000000000000000000BB
:1052B00000000000000000000000000000000000EE
:1052C00000000000713100082D2D000800000000D2
:1052D000D04E0008605100082051000820510008FD
:1052E00020510008205100082051000820510008DA
:1052F000205100082051000820510008FFFFFFFF47
:10530000FFFFFFFFFFFFFFFFFFFF00000100415312
:1053100043494900000000000000000000000000B8
:1053200000000000000000000000000000004153E9
:105330004349490000000000000000000000000098
:10534000000000000000000000000000000000005D
:0400000508004D3D65
:00000001FF
